:020000040800F2
:10000000680400209D0100083B17000859140008EF
:100010003917000809020008AD1A000800000000A6
:10002000000000000000000000000000F1190008BE
:100030000B020008000000003D170008F31900083B
:10004000B7010008B7010008B7010008B7010008B0
:10005000B7010008B7010008B7010008B7010008A0
:10006000B7010008B7010008B7010008B701000890
:10007000B7010008B7010008B7010008B701000880
:10008000B7010008B7010008B7010008B701000870
:10009000B7010008B7010008B7010008B701000860
:1000A000B7010008B7010008B7010008B701000850
:1000B000B7010008B7010008B7010008B701000840
:1000C000B7010008B7010008B7010008B701000830
:1000D000B7010008B7010008B7010008B701000820
:1000E000B7010008B7010008B7010008B701000810
:1000F000B7010008B7010008B7010008B701000800
:10010000B7010008B7010008B7010008B7010008EF
:10011000B7010008B7010008B7010008B7010008DF
:10012000B7010008B7010008B7010008B7010008CF
:10013000B7010008B7010008B7010008B7010008BF
:10014000B7010008B7010008B7010008B7010008AF
:10015000B7010008B7010008B7010008B70100089F
:10016000B7010008B7010008B7010008B70100088F
:10017000B7010008B7010008B7010008000000003F
:10018000B7010008B7010008DFF80CD000F02AF82A
:1001900000480047ED1A0008680400200648804720
:1001A00006480047FEE7FEE7FEE7FEE7FEE7FEE75C
:1001B000FEE7FEE7FEE7FEE7691A0008890100088E
:1001C000D2B201E000F8012B491EFBD27047002299
:1001D000F6E710B513460A4604461946FFF7F0FF46
:1001E000204610BD064C074D06E0E06840F00103D4
:1001F00094E8070098471034AC42F6D3FFF7C8FFE5
:10020000741B0008941B0008FEE77047704700004D
:1002100070B5044600F0F8F80546601C02D00448AA
:100220004068044400F0F0F8401BA042FAD370BDCF
:10023000080000202DE9F84FDFF898B100234FF0B7
:10024000010C4FF0030A4FF00F090BF1040EB9E057
:100250000CFA03F4224070D04D68022D01D0122D0B
:100260000ED1DD0800EB8508D8F820505E07F70EA8
:1002700009FA07F6B5430E69BE402E43C8F8206060
:1002800007685E0091F804800AFA06F508F0030892
:10029000AF4308FA06F848EA0708C0F800804F683C
:1002A000012F05D0022F03D0112F01D0122F13D10F
:1002B000D0F80880CF6828EA0508B74047EA080761
:1002C0008760D0F804800F7928EA0408C7F3001784
:1002D0009F4047EA08074760D1F804806FEA0807A3
:1002E000BF0706D1C76AA743C8F3C0049C403C437C
:1002F000C462C468AC438D68B5402543C5604C6892
:10030000E4005ED5344C256E45F001052566246E6B
:1003100023F0030504F001040094304C2E19B46856
:100320009D072F0F09FA07F5AC43B0F1904F05D0A8
:100330002B4DA84204D101251CE042E0002519E024
:10034000284DA84201D1022514E0274DA84201D131
:1003500003250FE0254DA84201D104250AE0244DD4
:10036000A84201D1052505E0224DA84201D106256C
:1003700000E00725BD402543B560DBF800405D4641
:100380004E689443F60300D514432C60DEF8004019
:1003900075464E689443B60300D514432C600D4D4A
:1003A00008352C684E689443F60200D514432C603F
:1003B000084D0C352C684E689443B60200D51443A2
:1003C0002C605B1C0A6832FA03F57FF441AF00F041
:1003D00013B800000004014000100240000001407A
:1003E0000004004800080048000C004800100048C5
:1003F000001400480018004818BCBDE8E08F0AB19E
:1004000081617047816270470148806870470000D1
:100410000800002090F84120202A24D190F84020A4
:10042000012A20D0012280F84020242280F8412097
:100430000268136823F0010313600268136823F451
:1004400080531360026813680B43136001680A68E5
:1004500042F001020A60202180F84110002180F85A
:100460004010084670470220704790F84120202A2B
:1004700022D190F84020012A1ED0012280F840208D
:10048000242280F841200268136823F001031360DE
:100490000268136823F4706343EA01211160016864
:1004A0000A6842F001020A60202180F84110002110
:1004B00080F84010084670470220704770B504006D
:1004C00004D094F84100002510B106E0012070BD71
:1004D00084F84050204600F079F9242084F8410047
:1004E0002068016821F0010101606068216820F046
:1004F000706008612068816821F400418160E068D3
:100500000128A06807D040F4044021688860E068B2
:10051000022803D006E040F40040F6E721684FF4DB
:100520000060486020684168114A114341602068BA
:10053000C16821F40041C160D4E904010843A16904
:1005400040EA01202168C860D4E907010843216816
:1005500008602068016841F00101016065642020A5
:1005600084F84100256384F84250002070BD0000EB
:10057000008000022DE9F84F044690F84100DDF8B4
:1005800028A01F4690468B4620287ED194F8400034
:1005900001287AD0012084F84000FFF735FF064695
:1005A000012200901923D103204600F0BFFFE0BBD9
:1005B000222084F84100102084F842000025656460
:1005C000C4F8248067856563618D3148FF274FF04B
:1005D00080784FF00079FF2903D927853A460090AB
:1005E00039E0618D218500903AE05946204600F0BF
:1005F00087FF13E000F0C6FFB8B92068406A616A5F
:100600000870606A401C6062208D401E80B22085A8
:10061000618D491E6185618D01B168B1608D324681
:10062000002851462046E5D100E002E000F0ECFF52
:10063000D0B1012000F030B853460022802120467E
:10064000009600F073FF0028F3D1608DFF2804D9D5
:1006500027853A4600954346C7E7608D208500957B
:1006600094F828204B46C0E721682020C861216803
:100670004A68084B1A404A6084F8410084F84250A6
:1006800084F840500020D5E7FFE70220D2E70000C1
:100690000024008000E800FE18BCBDE8E08F0000E8
:1006A0002DE9F84F044690F84100DDF828A01F46D8
:1006B00090468B4620287ED194F8400001287AD0BD
:1006C000012084F84000FFF79FFE064601220090BB
:1006D0001923D103204600F029FFE0BB212084F834
:1006E0004100102084F8420000256564C4F824808D
:1006F00067856563618D3148FF274FF080784FF043
:100700000079FF2903D927853A46009039E0618DA9
:10071000218500903AE05946204600F0F1FE13E0B2
:1007200000F098FFB8B9606A216800788862606A52
:10073000401C6062608D401E6085208D401E80B22E
:100740002085618D01B168B1608D32460028514627
:100750002046E5D100E002E000F056FFD0B10120D4
:1007600000F030B85346002280212046009600F069
:10077000DDFE0028F3D1608DFF2804D927853A4695
:1007800000954346C7E7608D2085009594F82820A2
:100790004B46C0E721682020C86121684A68084BA1
:1007A0001A404A6084F8410084F8425084F840506E
:1007B0000020D5E7FFE70220D2E7000000200080FC
:1007C00000E800FE18BCBDE8E08F0000F0B587B07F
:1007D000044614216846FFF7FAFC1E492068884247
:1007E00036D11D49C86C40F00200C864C86C00F0E6
:1007F00002000590886D40F400108865886DC02562
:1008000000F40010059001260220144FCDE9005697
:10081000039069463846FFF70DFD01224021384616
:10082000FFF7EDFD012280213846FFF7E8FD216842
:1008300070030860216800200860CDE90260122181
:10084000CDE900510420049069463846FFF7F2FCD8
:1008500007B0F0BD00540040001002400004004802
:100860000248816842681144816070470800002096
:1008700010B50024032000F063F8002000F008F811
:1008800008B1012401E000F025F8204610BD000069
:1008900070B50E4E05460024706898B14FF47A7119
:1008A000B1FBF0F00A490968B1FBF0F000F0C0FDBF
:1008B00040B9102D06D200222946501E00F020F823
:1008C000356000E00124204670BD000008000020D3
:1008D00014000020094808B5016E41F001010166CD
:1008E000016E01F001010091816D41F0805181653F
:1008F000806D00F08050009008BD000000100240A4
:10090000F0B40E4B1B680C46C3F30223C3F107057A
:10091000042D00D90425191D072901D2002300E068
:10092000DB1E012606FA05F1491E214099409E4032
:10093000761E16403143F0BC01F0B9B80CED00E072
:10094000064900F0070208684FF6FF03184040EA26
:100950000220034A10430860704700000CED00E0DD
:100960000000FA051649B0F5007F0868C0F3412081
:1009700009D0022805D0086820F4C06040F48060E7
:100980000860002070470128FBD0086820F4C06090
:1009900040F4007008600B483222006850430A4A55
:1009A000B0FBF2F0401C00E0401E4A69520501D540
:1009B0000028F9D148694005E3D5032070470000BD
:1009C000007000401400002040420F000248006800
:1009D00000F4C06070470000007000402DE9F84F3F
:1009E000044600270088E54D3E46010504F1200B32
:1009F0001DD5606E78B1B0F5800F11D0B0F5000F45
:100A000004D0B0F5400F22D001270FE0E86840F491
:100A10008030E8601BE00021201D00F091FE03E023
:100A20000021584600F022FF070010D03E462088E3
:100A3000C00426D5A06EC0B1B0F1807F1AD0B0F14D
:100A4000007F0DD0B0F1407F19D0012718E0D5F814
:100A50008800616E20F440000843C5F88800E6E78E
:100A6000E86840F48030E86009E00021201D00F0D3
:100A700067FE03E00021584600F0F8FE0746F7B194
:100A80003E46206880033AD5A86D4FF00008C000AC
:100A900009D4A86D40F08050A865A86D4FF00108FA
:100AA00000F080500090DFF8D8A2DAF8001041F48E
:100AB0008071CAF80010FFF7A7FC814610E0D5F856
:100AC0008800A16E20F040700843C5F88800D8E780
:100AD000FFF79AFCA0EB0900022801D9032705E0E3
:100AE000DAF80000C005F3D5002F7CD04FEA0706E6
:100AF000B8F1000F03D0A86D20F08050A8652078D1
:100B0000C00707D0D5F88800A16B20F00300084388
:100B1000C5F888002078800707D5D5F88800E16BF4
:100B200020F00C000843C5F888002078400707D55E
:100B3000D5F88800216C20F030000843C5F8880003
:100B40002078000707D5D5F88800616C20F0C00038
:100B50000843C5F888002078C00607D5D5F8880076
:100B6000A16C20F440700843C5F888002078800606
:100B700007D5D5F88800E16C20F440600843C5F83B
:100B800088002088800507D5D5F88800E16D20F41D
:100B900040200843C5F888002088400507D5D5F8CF
:100BA0008800216E20F440100843C5F888002078A2
:100BB000400607D5D5F88800216D20F44050084341
:100BC000C5F888002078000607D5D5F88800616D43
:100BD00020F440400843C5F888002088C00509D5A6
:100BE000D5F8880000E01CE0A16D20F440300843F7
:100BF000C5F8880020884FF0006780044FF08068B7
:100C00004FD5D5F88800E16E20F040600843C5F864
:100C10008800E06EB8423CD1E86840F48010E8609B
:100C20003FE0D5F8900010F4407015D0D4F884104F
:100C3000814211D0D5F89000D5F8901020F4407082
:100C400041F48031C5F89010D5F8901021F480312E
:100C5000C5F89010C5F89000C00710D0FFF7D4FB7E
:100C6000074641F2883906E0FFF7CEFBC11B494534
:100C700001D903263CE7D5F890008007F4D5D5F8D4
:100C80009000D4F8841020F440700843C5F8900018
:100C90002EE7404505D10121201D00F051FD00B196
:100CA00006462068000317D5D5F88800216F20F08C
:100CB00040600843C5F88800206FB84204D1E86856
:100CC00040F48010E86007E0404505D10121201D77
:100CD00000F036FD00B106462068400317D5D5F870
:100CE0008800616F20F040600843C5F88800606F9D
:100CF000B84204D1E86840F48010E86007E040455D
:100D000005D10121201D00F01BFD00B10646208801
:100D100040041AD5D5F88800A16F20F04050084350
:100D2000C5F88800A06FB0F1805F03D0B0F1005F1C
:100D300005D00AE00221201D00F002FD03E002219F
:100D4000584600F093FD00B106462088000407D500
:100D5000D5F88800E16F20F080400843C5F888008E
:100D60002068C00307D555F8880FD4F8801020F00C
:100D7000004008432860304600F004B800100240EC
:100D80000070004018BCBDE8E08F00002DE9F0477E
:100D90000F46050058D0404E306800F00700B842BA
:100DA00009D2306820F0070038433060306800F026
:100DB0000700B84248D12878384CC0072CD0686862
:100DC000032811D0022812D0216898B149050029C2
:100DD0003ADAA16821F003010143A160FFF714FB97
:100DE000804641F2883910E021688901EFE72168E7
:100DF0008903ECE78907EAE7FFF706FBA0EB0801A8
:100E0000494502D90320BDE8F087A068696800F071
:100E10000C00B0EB810FEFD12878800705D5A068D2
:100E2000A96820F0F0000843A060306800F00700D7
:100E3000B8420BD9306820F0070038433060306882
:100E400000F00700B84201D00120DCE72878400715
:100E500005D5A068E96820F4E0600843A060287820
:100E6000000706D5A068296920F4605040EAC10057
:100E7000A06000F01BF8A168094AC1F30311515C9E
:100E800001F01F01C8400749086007480068BDE835
:100E9000F047FFF7FDBC00000020024000100240B8
:100EA000341B0008140000200800002070B52449FD
:100EB000002318468A68CC6812F00C0204F003067E
:100EC000204C214D09D00C2A05D0042A32D0082A02
:100ED00000D1284670BD012E10D10B681B0704D429
:100EE000D1F89430C3F3032302E00B68C3F3031378
:100EF000164E56F82330DAB10C2AEBD1C86800F050
:100F00000300022818D0032818D01846CA68CB68F6
:100F1000C2F30212C3F306234343521CB3FBF2F2A3
:100F2000C868C0F34160401C4000B2FBF0F070BDE7
:100F3000184670BD204670BD2046E7E72846E5E725
:100F4000001002400024F40040787D01441B00089A
:100F50002DE9F84304006ED0FD4DA86800F00C06A2
:100F6000E86800F003072078C00663D576B10C2E40
:100F700001D1012F0AD0A0690028286878D040F05C
:100F800001002860FFF740FA80465BE02868800790
:100F900002D5A0690028DED0216A2868000703D5A1
:100FA000286800F0F00004E0D5F89400F02202EA8E
:100FB0001010814216D9084600F0DCFC00283AD116
:100FC000286840F0080028602868216A20F0F000B6
:100FD000084328606868E16920F47F4040EA012006
:100FE000686015E0286840F0080028602868216AD9
:100FF00020F0F000084328606868E16920F47F4031
:1010000040EA01206860206A00F0B4FC0028D6D1D4
:10101000FFF74CFFA968CF4AC1F30311515C01F0FF
:101020001F01C840CC490860CC480068FFF730FC7D
:1010300000287DD12DE0C9E0FFF7E6F9A0EB08001C
:10104000022876D828688007F6D5286840F008007E
:1010500028602868216A20F0F0000843286068684A
:10106000E16920F47F4040EA0120686011E0FFE779
:1010700020F001002860FFF7C7F9804606E000BFB6
:10108000FFF7C2F9A0EB08000228DAD82868800729
:10109000F6D42078C00740D0082E18D00C2E01D1ED
:1010A000032F14D06068B0F5803F17D0B0F5A02FA3
:1010B000286817D020F480302860286820F4802029
:1010C00028606068E0B1FFF79FF9804614E0286867
:1010D000800322D56068002878D01EE0286840F49C
:1010E0008030EDE740F480202860F7E7FFF78CF9C7
:1010F000A0EB08006428A4D828688003F6D50CE08B
:10110000FFF782F9804605E0FFF77EF9A0EB0800C3
:10111000642896D828688003F6D4207880073BD5C9
:10112000042E11D00C2E01D1022F0DD0E06801E069
:101130003EE19FE0002828681ED040F480702860BF
:10114000FFF762F907460CE0286840050CD5E06817
:101150000028C1D008E000BFFFF756F9C01B0228E5
:1011600093D828684005F7D56868217C20F0F850AE
:1011700040EA016068600FE020F480702860FFF7AB
:1011800043F9074605E000BFFFF73EF9C01B022800
:1011900070D828684005F7D42078000729D5606901
:1011A0000028D5F8940012D040F00100C5F8940052
:1011B000FFF72AF9074604E0FFF726F9C01B0228CB
:1011C00058D8D5F894008007F6D512E029E120F030
:1011D0000100C5F89400FFF717F9074605E000BFC6
:1011E000FFF712F9C01B022844D8D5F894008007F5
:1011F000F6D42078400768D5A86D0027C00008D431
:10120000A86D40F08050A865A86D012700F08050BF
:10121000009053480168C90512D40168814641F421
:1012200080710160FFF7F0F8804605E0FFF7ECF809
:10123000A0EB080002281DD8D9F80000C005F5D59C
:10124000A068012817D00528D5F8900018D020F004
:101250000100C5F89000D5F8900020F0040000BF10
:10126000C5F89000A06841F28839D0B1FFF7CCF8FA
:10127000804611E06BE0D5F8900040F00100EFE708
:1012800040F00400C5F89000F5E700BFFFF7BCF898
:10129000A0EB080149455AD8D5F890008007F5D54C
:1012A0000EE0FFF7B1F8804606E000BFFFF7ACF8AC
:1012B000A0EB080149457AD8D5F890008007F5D40D
:1012C0001FB1A86D20F08050A865A06AF0B30C2E65
:1012D00075D00228286820F08070286004D0286823
:1012E00010F0205F51D054E0FFF78EF8064604E07E
:1012F000FFF78AF8801B022859D828688001F7D4A4
:10130000D4E90B016FF00F0202EB01110843A18F2A
:101310005204490802EB4151626B41EA0221084341
:1013200094F840104FF07E42490802EB41610843B7
:10133000A16B090940EA4140E9680A4A11400843A3
:10134000E860286840F0807028600DE06BE02EE0D7
:1013500000100240341B0008140000200800002088
:10136000007000408C809DF9E86840F08070E86073
:10137000FFF74AF8044604E0FFF746F8001B02288E
:1013800015D828688001F7D54DE0E86820F0030003
:10139000E860E86825490840E860FFF735F804464A
:1013A00009E000BFFFF730F8001B022803D9032033
:1013B000BDE8F88303E028688001F3D433E0012816
:1013C000F6D0E868E26A00F00301914229D1216B6E
:1013D00000F0700209011039914222D1626B00F4D1
:1013E000FE41B1EB022F1CD1A26B00F40031072AA1
:1013F00001D0012200E00022914212D1A18F00F41D
:10140000C00249084905A1F50011914209D194F89B
:10141000401000F0C06049084906A1F10071814206
:1014200001D00120C4E70020C2E70000FFFFEEFE6C
:1014300010B5401EB0F1807F01D3012010BD4FF0E8
:10144000E02460610F21601700F031FB0020A061F3
:1014500007202061002010BDFEE701688A69D243A1
:10146000920701D400228A6200688169C943C907D2
:1014700003D0816941F00101816170472DE9F0419C
:101480000446006890460E468069C043C00633D4C7
:101490000025202720688069C043800615D5701C70
:1014A000F8D0FEF7B1FFA0EB0800B04201D8002E43
:1014B000F0D154F8440F40F0200044F8040967705C
:1014C000A57025700120BDE8F08121681020C86159
:1014D0002068C7612046FFF7C0FF54F8440B4168FD
:1014E000064A11404160206840F0040044F8200999
:1014F0006777A5772577E5E70020E4E700E800FEB9
:10150000F0B50568059C68684FF48066064FC1F326
:10151000090106EA545641EA02413E431943B043E9
:10152000214308436860F0BDFF63FF032DE9F041EC
:101530001D4617460E460446DDF8188008E0681C74
:1015400006D0FEF761FFA0EB0800A8420BD855B10A
:101550002068806936EA000012D00020B842EED040
:101560000020BDE8F08154F8440F40F0200044F81A
:101570000409202060700020A07020700120F0E796
:101580000120EBE72DE9F041002690460F46044686
:10159000202525E0424639462046FFF76FFF78BBFD
:1015A00020688069C043800613D420688169C943DC
:1015B000490701D4218DC1B9C56154F8440B416874
:1015C000104A1140416044F820696577A677267774
:1015D00016E0FEF719FFA0EB0800B84208D83FB1AB
:1015E00020688069C0434007D4D40020BDE8F08162
:1015F00054F8440F40F0200044F804096570267048
:101600000120F3E700E800FE70B516460D460446DB
:101610000DE0324629462046FFF730FF08B1012091
:1016200070BDFEF7F1FE801BA84207D835B12068D7
:101630008069C0438006ECD4002070BD54F8440F8C
:1016400040F0200044F80409202060700020A070C1
:101650002070E4E770B516460D4604460FE03246AA
:1016600029462046FFF70AFF08B1012070BD681C1B
:1016700005D0FEF7C9FE801BA84207D835B1206807
:101680008069C0438007EAD4002070BD54F8440F3D
:1016900040F0200044F80409202060700020A07071
:1016A0002070E2E70D4808B5C16C41F00401C16447
:1016B000C16C01F004010091C16C41F08001C16472
:1016C000C16C01F080010091C16C41F00201C16464
:1016D000C06C00F00200009008BD00000010024045
:1016E000134810B5114901601249416000210122DF
:1016F000C0E90212016141618161C1610162FEF7CD
:10170000DDFE08B1FEF782FD00210948FEF782FEEA
:1017100008B1FEF77BFD00210548FEF7A6FE002874
:1017200003D0BDE81040FEF771BD10BD005400406D
:1017300018000020EC9C9010FEE7704770470000F6
:101740002DE9F041444C05468846E06800268107B3
:1017500028680DD0E16801F00301814216D1A8B1DB
:10176000E0686968C0F30210401C88420ED120E096
:10177000012804D0022805D0032807D108E02168F9
:10178000890701E021684905002907DB01265FE0A0
:101790002168890302D421684903F5E7E1686A6892
:1017A0006FF00F0321F0730103EB021211430143A9
:1017B000E160206820F080602060FEF725FE07468B
:1017C00005E000BFFEF720FEC01B022837D82068C6
:1017D0000001F7D4B8F1000F18D0B8F1010F1ED0F6
:1017E000287D4FF07E41400801EB4060A96840EA47
:1017F00001202169194A114008432061206840F006
:1018000080602060FEF700FE07461AE0A868E968DD
:101810000002090940EA41402169114AEBE7288AA0
:101820001049400801EB4050A96840EA01202169B5
:101830000D4AE0E7FEF7E8FDC01B022801D90326A8
:1018400006E020680001F5D52069A96908432061F8
:101850003046BDE8F081000000100240FF80FFF933
:10186000FF80FDFF0000E0FFFF809FFF2DE9F041BA
:101870003D4C06468846E0680025810730680DD05B
:10188000E16801F00301814216D1A8B1E0687168F6
:10189000C0F30210401C88420ED120E0012804D081
:1018A000022805D0032807D108E02168890701E054
:1018B00021684905002907DB012551E021688903DA
:1018C00002D421684903F5E7E16872686FF00F03FD
:1018D00021F0730103EB021211430143E160206820
:1018E00020F080502060FEF78FFD074605E000BF26
:1018F000FEF78AFDC01B022829D820688000F7D493
:10190000B8F1000F15D0307C4FF07E41400801EB5C
:101910004060B16840EA01206169144A11400843FF
:101920006061206840F080502060FEF76DFD074642
:101930000FE0B068F1680002090940EA41406169BE
:101940000B4AEBE7FEF760FDC01B022801D9032517
:1019500006E020688000F5D5606971690843606120
:101960002846BDE8F081000000100240FF80FFF92A
:10197000FF80FDFFF8B51C4D06460024A86DC00091
:1019800002D5FFF723F80DE0A86D40F08050A86560
:10199000A86D00F080500090FFF718F8A96D21F0B5
:1019A0008051A965B0F5007F04D0802E07D94FF093
:1019B00003040AE0802E08D9A02E01D804E001D14A
:1019C000022402E0702E00D101240848016821F0B1
:1019D000070121430160006800F00700A04201D028
:1019E0000120F8BD0020F8BD001002400020024098
:1019F0007047FEF735BF10B5B8B0442122A8FEF7F6
:101A0000E6FB142133A8FEF7E2FB88216846FEF7C7
:101A1000DEFB0120229000042390022003240521F4
:101A20002C90CDE92D4120212F910721CDE93010B7
:101A3000329022A8FFF78CFA0F20CDE9330400245E
:101A400035943694042133A83794FFF79FF940204A
:101A5000149400906846FEF7C1FF4FF40070FEF743
:101A600081FF38B010BD00000D48016841F47001DD
:101A700001600C48016841F00101016000218160B2
:101A80000268094B1A4002608214C260026822F4A4
:101A90008022026081610249C0038039086070477A
:101AA00088ED00E000100240FFFFF6EAFEE70907BC
:101AB000090E002804DB00F1E02080F800147047D4
:101AC00000F00F0000F1E02080F8141D704702E0E4
:101AD00008C8121F08C1002AFAD1704770470020B9
:101AE00001E001C1121F002AFBD1704708B5FEF7C3
:101AF000BFFEFFF780FFFFF7D5FDFFF7F1FD0025E3
:101B00000A4E642401233570084A80210848009455
:101B1000FEF7C6FD1420FEF77BFB0223034A80215B
:101B200003480094FEF726FDECE7000000000020CB
:101B30001800002000000000000000000102030463
:101B400006070809A0860100400D0300801A060060
:101B500000350C0040420F0080841E0000093D004B
:101B600000127A000024F40000366E010048E801FB
:101B7000006CDC02941B000800000020180000002C
:101B8000CE1A0008AC1B000818000020500400000A
:101B9000DE1A000800000000000000001000000035
:0C1BA000010000000000000000093D00F2
:040000050800018965
:00000001FF
