:020000040800F2
:10000000A80C0020AD0200085B4D00082544000844
:10001000594D0008F1040008716D0008000000004F
:10002000000000000000000000000000B9590008B6
:10003000F3040008000000005D4D0008BB590008F3
:10004000C7020008C7020008C7020008C70200086C
:10005000C7020008C7020008C7020008C70200085C
:10006000C7020008C7020008C7020008C70200084C
:10007000C7020008C7020008C7020008C70200083C
:10008000C7020008C7020008C7020008C70200082C
:10009000C7020008C7020008C7020008C70200081C
:1000A000C7020008C7020008C7020008C70200080C
:1000B000C7020008C7020008C7020008C7020008FC
:1000C000C7020008C7020008C7020008C7020008EC
:1000D000C7020008C7020008C7020008C7020008DC
:1000E000C7020008C702000800000000C70200089D
:1000F000C7020008C7020008C7020008C7020008BC
:10010000C7020008C7020008C7020008C7020008AB
:10011000C7020008C7020008C7020008C70200089B
:10012000C7020008C7020008C7020008C70200088B
:10013000C7020008C7020008C7020008C70200087B
:1001400000000000000000000000000000000000AF
:10015000C7020008C7020008C7020008C70200085B
:10016000C7020008C7020008C7020008C70200084B
:10017000C7020008C7020008C7020008000000000C
:10018000C7020008C7020008C7020008C70200082B
:10019000C7020008C7020008C7020008C70200081B
:1001A000C7020008C7020008C7020008C70200080B
:1001B000C7020008C7020008C7020008C7020008FB
:1001C000C7020008C7020008C7020008C7020008EB
:1001D000C7020008C7020008C7020008C7020008DB
:1001E000C7020008C7020008C7020008C7020008CB
:1001F000C7020008C7020008C7020008C7020008BB
:10020000C7020008C7020008C7020008C7020008AA
:10021000C7020008C7020008C7020008C70200089A
:10022000C7020008C7020008C7020008000000005B
:10023000C7020008C702000800000000C70200084B
:10024000C7020008C7020008C7020008C70200086A
:10025000C7020008C7020008C7020008C70200085A
:10026000C7020008C7020008C7020008C70200084A
:10027000C7020008C7020008C7020008000000000B
:10028000C7020008C7020008C702000800000000FB
:1002900000000000C7020008DFF80CD000F08CF866
:1002A00000480047B36D0008A80C002006488047AE
:1002B00006480047FEE7FEE7FEE7FEE7FEE7FEE74B
:1002C000FEE7FEE7FEE7FEE7C15A000899020008D4
:1002D0002DE9F05F0546002092469B46884606467B
:1002E000814640241BE0284641464746224600F00E
:1002F00053F853465A46C01A914110D31146184636
:10030000224600F03AF82D1A67EB01084F462246C4
:100310000120002100F031F817EB00094E41201EAA
:10032000A4F10104DFDC484631462A464346BDE8D5
:10033000F09F40EA01039B0703D009E008C9121FA0
:1003400008C0042AFAD203E011F8013B00F8013B8F
:10035000521EF9D27047D2B201E000F8012B491EBB
:10036000FBD270470022F6E710B513460A46044652
:100370001946FFF7F0FF204610BD202A04DB203A83
:1003800000FA02F1002070479140C2F1200320FAE8
:1003900003F3194390407047202A04DB203A21FAE6
:1003A00002F00021704721FA02F3D040C2F120028E
:1003B0009140084319467047064C074D06E0E06837
:1003C00040F0010394E8070098471034AC42F6D39C
:1003D000FFF766FF786E0008986E000870B53D491B
:1003E00005460068884202D03B4A904202D1D1F8CB
:1003F000080302E03948D0F8080310F4403F11D058
:1004000002F0FAFC04466868B0F5803F06D0B0F50B
:10041000003F03D0B0F5403F26D101E0000C17E0CB
:10042000A40821E04FF4002001F09AFE0446686819
:100430008103890B18D181140C2915D2DFE801F052
:10044000140606060606060B0D0F1113800C40005D
:10045000B4FBF0F408E0240906E0640904E0A40910
:1004600002E0E40900E0240A01F074FA41F2030119
:10047000884208D81A4884422868816817D821F42D
:100480008071816070BD17496008884204D828686F
:10049000816821F44071F4E7124A1249D243491E9F
:1004A00002448A4206D82868816821F4407141F4E8
:1004B0008071E6E70C4A0D4910448842286881683B
:1004C00004D821F4407141F40071DAE741F440713D
:1004D000D7E70000002002400021024000600258DF
:1004E000002D3101105E5F00DF4341FF1FBCBE00E5
:1004F000FEE7704770B5A2B0064600244FF4C36013
:1005000001258DF80F5002238DF81D4069038DF8E9
:100510000E5009948DF81F400D9020208DF8045046
:100520008DF8325042028DF8605006914FF04051E4
:100530008DF8384002948DF861408DF81C408DF89C
:1005400028408DF862408DF80C400B948DF81E50B9
:100550000F948DF8115012948DF840408DF8314071
:100560008DF8124014948DF856401790304616932B
:100570008DF8205005928DF854408DF830408DF85C
:100580001050009169468DF80D408DF8554011943A
:100590008DF84C5000F074F81B9568058DF871408B
:1005A0004FF406718DF8685019948DF880408DF8DD
:1005B00070401F908DF878401D9030468DF8814036
:1005C000219119A900F002F822B070BDF0B50268BF
:1005D00047F6020E274E4DF2010702F58052264DD6
:1005E000D1F800C01368254C23EA0E0343EA0C033C
:1005F00013600B79026891F80CE002F58052D1F893
:1006000008C01B0343EACE3343EA0C03D2F804C00C
:100610002CEA070C4CEA030CC2F804C002684F7BBA
:1006200002F580520B6A43EA0747D2F800313340A3
:100630003B43C2F8003102680B7D02F5805291F80D
:100640001DC00F69D2F804611B0143EA0C332E4030
:100650003B431E43C2F8046100680B7F00F58050E5
:100660008A69D0F8081142EAC37221401143C0F8E8
:100670000811F0BD00C0FEFFEFEFC0FFFFFFC07F1D
:10068000F0B50B790C7B0F688A68DB064D7B43EA7B
:10069000C4533A438E7B1A43CF7B91F810C042EA91
:1006A000855242EA4652BCF1000F42EA07537CD021
:1006B00000224C7C002C43EAC24278D000238E7C7E
:1006C0000D7F42EA43428F7FD1E9053442EA064278
:1006D0004E7F1A43224342EA0532002F42EAC624E3
:1006E00066D00022CD7F91F8203044EA8222002B90
:1006F00042EA45227ED0002504684B6A42EA052280
:1007000091F82870464D1A43CE6A236842EA0712D0
:1007100032432B401343236091F83C2091F838304A
:1007200091F8305091F83140520642EA036291F854
:10073000326042EA854242EA4444BEB30022036882
:10074000384E4F6B44EA02425C683A4340F20F1560
:10075000344014435C60036891F840604C6CDA6884
:1007600044EA0624AA432243DA6091F854300A6D21
:1007700091F84C4042EA4302ECB300240368B1F81C
:1007800048504FF60D76E7011C6F47EA05452A43AE
:10079000344014431C67026891F8563091F8555064
:1007A00052F8904F43EA450303E02BE032E02BE0A0
:1007B0002CE024F003041C43146002688C6DD2F812
:1007C000003D23F072032343C2F8003D91F86020FE
:1007D000CC6D1AB35FF00003026891F8615091F894
:1007E000621044EA8310D2F8303D2C0144EAC10182
:1007F000084301E00CE00FE023F07B010143C2F865
:10080000301DF0BD012254E7012358E7012269E7BA
:10081000012571E7012292E70124AFE70123DBE71D
:10082000838004000080F8C070470000F0B50368C2
:100830004FF6FC716D4C426BD3F884508D4345EA02
:100840008205C3F88450036853F8845F068F25F44B
:100850007F0545EA06451D60836B654D9F1802685C
:10086000D2F888308B4343EA8703C2F888300268A5
:1008700052F8883F868F23F4FE0343EA0643136051
:10088000066856F8A03FC26B8B4307EB420243EA6F
:1008900082033360076857F8A03FB0F8406023F444
:1008A000FE0343EA06433B60D0E9103603FB062211
:1008B0000368D3F8B0608E4346EA8206C3F8B0609E
:1008C0000368B0F84860D3F8B07027F4FE0747EA31
:1008D0000646C3F8B060D0E91267036806FB07223A
:1008E000D3F8AC608E4346EA8206C3F8AC60D0E928
:1008F0001467036806FB0722D3F8F0608E4346EACC
:100900008206C3F8F0600368B0F85860D3F8F0705E
:1009100027F47C1747EA0646C3F8F0600368876D42
:1009200053F8C06F02EB47028E4346EA820119601A
:100930000168B0F85C20D1F8C03023F47C1343EA9E
:100940000242C1F8C020016890F86020D1F8C030A0
:1009500023F07C5343EA0262C1F8C020416B04EBF0
:100960008101C166826B01EB82020267C36B02EBFD
:10097000C3024267D0E91034634302EB830282670B
:10098000D0E91234634302EB8302C267D0E9143426
:10099000634302EB8302C0F88020836D02EBC30344
:1009A000C0F88430C46D826E544303EB8403C0F8F6
:1009B0008830046E544303EB8402C0F89020AA42AE
:1009C0000AD9D0F89C20032142F02002C0F89C20D4
:1009D00080F898100120F0BD002200E004C1D0F89A
:1009E00090308B42FAD80020F0BD000000AC0040EF
:1009F000FCD300402DE9F047044690F85000002752
:100A00000E4601289AB014D0DFF8F8800121226840
:100A10004FF0000984F8501042450ED13A4D009530
:100A2000284603F008FD8246206803F004FD60B10B
:100A30000EE002201AB0BDE8F087616D84F8509096
:100A400041F0200161650120F4E7BAF1000F09D0FF
:100A5000606D012740F02000C4F85400384684F847
:100A60005090E7E720684146884201D0A84201D172
:100A7000264800E0264840F61F72D6F800C0254BF5
:100A8000BCF1000F23D0D0F808C0D6F804802CF4B5
:100A9000404C4CEA080CC0F808C0D4F800C08C45A3
:100AA00001D0AC4507D18968AB6801F0010103F0C2
:100AB0000103194302E0996801F001010029CDD139
:100AC000B5683168836829439343194317E0866802
:100AD00026F44046866026688E4201D0AE4207D199
:100AE0008968AB6801F0010103F00103194302E0DA
:100AF000996801F001010029B0D1816891438160BA
:100B0000ACE7000000200240002102400023024028
:100B100000630258006002582DE9F84F4FF0000BB7
:100B20000446E64E0D46CDF800B05F4690F8500002
:100B3000DFF88CA3012808D04FF0010984F8509009
:100B4000206803F074FC18B16BE10220BDE8F88F57
:100B500021682868CA69030328D090FAA0F0B0FA87
:100B600080F000BF00F01F0309FA03F00243CA61DE
:100B7000D5E900124FF00C0C20681F23C1F38461EB
:100B80000CEA921C02F01F02604493409140026BF9
:100B90009A430A430263206803F049FC80462068B8
:100BA00003F041FC58EA000003D07FE0C0F384600A
:100BB000D8E72068AA68296803F041FCC1490968A0
:100BC000B9EB117F06D121686869C968C1F3820158
:100BD000490008E02068C168C906C1686869F5D5A0
:100BE00001F0100149088840296904292ED02368A2
:100BF0002A6803EB810102F0F8420B6E024303F016
:100C0000004010430866697E20682A69012917D0D0
:100C10005FF0000100EB8200026E22F000420A4306
:100C20000266297E20682A6901290CD00021036907
:100C300002F01F02914023F4F0420A43026135E0C2
:100C40004FF00041E6E74FF40061F0E720682978B3
:100C5000026E02F0F842B2EB816F03D1016E21F017
:100C60000041016620682978426E02F0F842B2EB3A
:100C7000816F03D1416E21F00041416620682978DF
:100C8000826E02F0F842B2EB816F03D1816E21F0E7
:100C90000041816620682978C26E02F0F842B2EB0A
:100CA000816F03D1C16E21F00041C1662068816867
:100CB00011F0010F78D150F8C03F2A7BDFF808C24D
:100CC000296802F018022CFA02FCC1F3130823EA87
:100CD00008030CEA010C43EA0C0303607B48E96853
:100CE000814277D1286801031BD090FAA0F1B1FAB4
:100CF00081F1491C01F01F0109294FEA003131D867
:100D0000002911D090FAA0F1B1FA81F101F10101AD
:100D100001F01F0109FA01F209D100BFC0F384619B
:100D200009E0C0F38461E4E7C0F38461EEE790FA80
:100D3000A0F1B1FA81F101F1010101F01F0142EAD4
:100D4000816102D1C0F3846003E090FAA0F0B0FAB0
:100D500080F000F1010000F01F0000EB400041EACC
:100D6000005133E000290ED090FAA0F1B1FA81F1E0
:100D700001F1010101F01F0109FA01F206D100BFE2
:100D8000C0F3846106E0C0F38461F1E790FAA0F15A
:100D9000B1FA81F101F1010101F01F0142EA816123
:100DA00003D1C0F3846004E040E090FAA0F0B0FA10
:100DB00080F0474A00F1010000F01F0000EB400006
:100DC00002EB005041EA000141F00071AA6820687E
:100DD00003F035FBD5F800C0BCF1000F26DA3D4B1F
:100DE00020683D49DFF8F490984201D0B04201D12B
:100DF0000A4600E04A469268984202F0E07201D04A
:100E0000B04209D19D68D6F8088005F0010508F0C8
:100E1000010845EA080503E0DAF8085005F0010585
:100E200045B1606D012740F020006065384684F8C8
:100E300050B08BE62A4DAC451BD1150219D4504554
:100E4000F4D1984202D0B04200D049468B6842F4B7
:100E5000000023F0E07202438A60234921480968B8
:100E6000B1FBF0F0400000E0401E00900028FBD1F4
:100E7000DCE71E4DAC450CD1D5010AD45045D5D187
:100E8000984202D0B04200D049468B6842F0807050
:100E90000EE0174DAC45C9D15502C7D45045C5D158
:100EA000984202D0B04200D049468B6842F480009C
:100EB00023F0E07202438A60B8E70000002102409C
:100EC000006002580010005CFFFF0F000000FF47A9
:100ED000000020FE00200240002302400063025870
:100EE000000084CB400D03000C000020000052C71E
:100EF0000000B8CFF8B54FF0000604003546009664
:100F000002D0606D10B107E00120F8BD204600F06E
:100F100003F9A66584F8506020688168C1F34071C8
:100F200019B181686F4A1140816020688168C1F3FE
:100F3000007179B981686C4A114041F0805181603B
:100F40006B496A480968B1FBF0F000E0401E009070
:100F50000028FBD120688168C1F3007141B9616D3F
:100F6000012541F010016165A16D41F00101A1650C
:100F700003F05DFA616DC90600D420B1606D0125F2
:100F800040F0100093E0606D20F4807040F00200AB
:100F900060652068816811F0010F1FD15549564BDB
:100FA000884201D0984207D18A689E6802F0010207
:100FB00006F00106324303E0504A926802F0010253
:100FC00062B9884201D0984201D14D4800E04D48B5
:100FD0008268616822F47C120A43826000F0BAFCE5
:100FE00041F20301884202D9A06810280CD0617D2B
:100FF000227FA368206B490341EA0241184308435A
:10100000217F01290CD010E0607D227F216B4003FD
:1010100040EA024241F01000104340F00C00EFE7BC
:10102000218C394A02EB41410843616A29B1A26A25
:1010300001F47871014342EA01002268334BD16820
:1010400019400143D160206803F0F1F90646206899
:1010500003F0E9F930431DD1216844F20303267DF2
:10106000E26AC86842EA863298431043C86094F83E
:10107000380001281ED02068016921F001010161BA
:101080002068626B016921F07041114301612046C3
:10109000FFF7A4F9E068012820681CD0016B21F05B
:1010A0000F010163606D20F0020040F001006065F7
:1010B0002846F8BD2068A38F154FD4E9101C154EA3
:1010C00007EB0347A26C036941EA0C013A43334042
:1010D00011431943D3E7A269016B521E21F00F019E
:1010E0001143DEE7C0FFFF5FC0FFFF7F400D03003D
:1010F0000C00002000200240002102400060025845
:1011000000230240006302580000FEFF03C0F0FF0E
:101110000100FFFF1EF800FC10B586B00446142144
:101120006846FFF71FF91149206888421BD1104813
:10113000016841F020010160006800F02000059086
:101140000B480830016841F002010160006800218D
:1011500000F00200059003200090CDE90101054850
:10116000694600F0F3FA06B010BD0000002002400E
:10117000D84402580004025870B5044600F0F0FB51
:101180000546601C02D004480078044400F0E8FBE7
:10119000401BA042FAD370BD00000020F8B5040047
:1011A00002D0606D10B104E00120F8BD204600F0CF
:1011B000F7F8232060657048016841F00201016082
:1011C000006800F002000090207A08B14FF400009F
:1011D00002F05AFD206800F58050016841F00101DD
:1011E000016000F0BDFBE02605464FF4FA7706E00B
:1011F00000F0B6FB401BB84201D9042049E020684A
:1012000000F580500068C007F2D12068D0F80002D5
:1012100020F4706501F0F0FD584A594902448A42B1
:1012200002D245F4007516E0564A574902448A42F4
:1012300002D245F440750EE05449554A01449142AA
:1012400009D35449544A0844904202D245F4807567
:1012500001E045F480652068C0F8005201F0CCFD43
:101260004E4A2168B0FBF2F0401EC1F8DC00204677
:10127000FFF740F9206800F58050D0F8001121F404
:10128000E01141F40021C0F800116169880703D022
:101290000120E065666587E7206847F6FE7300F584
:1012A0008050D0F808219A4342EA4101C0F8081161
:1012B00000210846E26800EB400504EB800302EBE6
:1012C000C502116051609160D160401C04289A6190
:1012D000F0D3A1620323206800F58050C0F82C31C0
:1012E0002068E26800F58050C0F814212068E268A8
:1012F00000F58050C0F820215FF00002206902EB69
:10130000420604EB820500EBC6000160416081608B
:10131000C16001614161521C042AE862EED3E163BD
:1013200021646164E164A164206800F58050C0F824
:1013300030312068226900F58050C0F81C212268F5
:10134000206902F5805200F5D860C2F82801D4E97E
:1013500000208088C2F8000360682368D0F801503C
:101360000278102042EA0522C3F80423E165606593
:10137000A0650020F8BD0000F444025800D3CEFE62
:10138000C0E1E40040F1E9FD40787D0100796CFCAA
:10139000005A6202001F0AFA80F0FA0240420F006F
:1013A00070B586B0044614216846FEF7DBFF364967
:1013B0002068884266D13548016841F400410160E7
:1013C000016801F400410591016841F48031016038
:1013D000016801F480310591016841F40031016038
:1013E000006800F40030059028480830016841F09A
:1013F00004010160016801F004010591016841F0F8
:1014000001010160016801F001010591016841F0ED
:1014100002010160016801F002010591016841F0DB
:1014200040010160006800240B26694600F040007E
:1014300005903220009002251548CDE90154CDE9F0
:10144000034600F083F986200090CDE9015411484D
:101450006946CDE9034600F079F9A8020090CDE98C
:1014600001540D486946CDE9034600F06FF94FF489
:1014700040500090CDE9015408486946CDE9034643
:1014800000F064F906B070BD00800240D8440258F4
:1014900000080258000002580004025800180258C0
:1014A0002DE9F04194B08D494C2204466846FEF780
:1014B00040FF64B18A4D2068A84202D100F58070D7
:1014C000606094F898004FF0000820B108E0012017
:1014D00014B0BDE8F081204684F8998000F002F94C
:1014E0002068816921F01001816100F039FA032739
:1014F000064604E000F034FA801B0A2811D8206860
:1015000080690007F6D42068816941F0010181619A
:1015100000F026FA06460DE000F022FA801B0A28A9
:1015200008D9D4F89C0040F00100C4F89C0084F86D
:101530009870CCE720688069C007EDD02068816989
:1015400041F002018161207C01282068816937D047
:1015500041F040018161607C01282068816932D0BE
:1015600021F480418161A07C0128206881692DD00F
:1015700041F4805181612068A268816921F4407141
:10158000114381612068816921F0A4018161206893
:10159000016921F010010161E068012819D010B340
:1015A00002281BD02068816941F080018161206898
:1015B000016941F010010161E06803280ED012E0DA
:1015C00021F04001C6E741F48041CBE721F480518E
:1015D000D0E72068816941F0040103E02068816957
:1015E00041F020018161207E6FF0FF02D4E9077392
:1015F000A68A1102400602EB0727A0F100703843CB
:1016000027685B1E184301EB06463043F861A0686B
:10161000B0F5407F11D104F12800A68C6FF00F0CBB
:1016200089C801EB0641401E02EB032210432268E9
:101630000CEB071318430843D060206E30B12068CC
:10164000626ED0F8C0101143C0F8C010D4E9171270
:101650006846D14209D02168A36E51F8C82F50F8CE
:10166000233022F007021A430A60216C49B1216835
:10167000626C51F8BC3F50F8226023F007023243FD
:101680000A60A16C51B12168E36C51F8BC2F50F88D
:10169000233022F0700242EA03120A60216D51B138
:1016A0002168626D51F8BC3F50F8220023F4E062DB
:1016B00042EA002008602068A84204D1606881687E
:1016C00021F003018160C4F894800121C4F89C805A
:1016D00084F898102046FFF7A9F8F9E61C6E000878
:1016E00000A0004010B586B0044614216846FEF7FD
:1016F00039FE13492068884220D11248016841F41C
:1017000080710160006800F4807005900D480C380D
:10171000016841F00201016000680923022200F023
:101720000200059000204FF4407100916946CDE918
:101730000120CDE90303044800F008F806B010BD0D
:1017400000A00040EC440258000402582DE9F84F74
:10175000714C00234FF0B04E4FF001094FF0030BD6
:101760004FF00F0AD0E000BF09FA03F812EA0802AE
:1017700074D04D68022D01D0122D0FD1DD085F0706
:1017800000EB850500950E692D6AFF0E0AFA07FC2D
:10179000BE4025EA0C052E43009D2E625D000F79A8
:1017A00006680BFA05FC07F0030726EA0C06AF40B3
:1017B000374307604E68012E05D0022E03D0112E4C
:1017C00001D0122E0FD18668CF6826EA0C06AF40F2
:1017D0003743876046680F7926EA0806C7F3001783
:1017E0009F4037434760C6688F6826EA0C06AF40C3
:1017F0003743C7604D68ED0030D5484D2E6846F040
:1018000002062E602D6823F0030606F1B04605F0AF
:10181000020500959D072F0FD6F80854DFF80081C8
:101820000AFA07FC404525EA0C0502D14FF0000CEE
:1018300041E0DFF8F0C0604502D14FF0010C3AE022
:10184000DFF8E4C0604502D14FF0020C33E0DFF86E
:10185000DCC0604503D14FF0030C2CE053E0DFF80F
:10186000D0C0604502D14FF0040C24E0DFF8C4C0C2
:10187000604502D14FF0050C1DE0DFF8BCC06045AB
:1018800002D14FF0060C16E0DFF8B0C0604502D17F
:101890004FF0070C0FE0DFF8A8C0604502D14FF011
:1018A000080C08E0DFF89CC0604502D14FF0090C3D
:1018B00001E04FF00A0C0CFA07FC4CEA050CC6F8E4
:1018C00008C425684E6825EA0205F60300D51543CD
:1018D000256065684E6825EA0205B60300D5154304
:1018E00065604F687546DEF80060FF0226EA020672
:1018F00000D516432E604F686E68BF0226EA0206C6
:1019000000D516436E605B1C0A6832FA03F57FF45B
:101910002BAFBDE8F88F000080000058F444025857
:10192000000002580004025800080258000C025837
:10193000001002580014025800180258001C0258E7
:1019400000200258002402580AB18161704709043E
:10195000FBE7000001480068000C70470010005CC5
:1019600001488068704700000000002030B590F802
:101970004120202A24D190F84020012A20D00123A0
:1019800080F84030242280F841202023002402687F
:10199000156825F0010515600268156825F4805565
:1019A0001560026815680D43156001680A6842F009
:1019B00001020A6080F8413080F84040002030BDCC
:1019C000022030BD30B590F84120202A22D190F875
:1019D0004020012A1ED0012380F84030242280F8C4
:1019E0004120202400250268136823F001031360BE
:1019F0000268136823F4706343EA012111600168EF
:101A00000A6842F001020A6080F8414080F84050C4
:101A1000002030BD022030BD70B5040004D094F821
:101A20004100002510B106E0012070BD204684F879
:101A3000405000F04DF8242084F8410020680168EF
:101A400021F001010160D4E9001020F0706008610C
:101A50002068816821F400418160E06821680128E4
:101A6000A06806D040F404408860E068022803D0F3
:101A700006E040F40040F7E721684FF4006048605A
:101A800020212068114A4368134343602068C268DC
:101A900022F40042C26054F8106B0DCC104340EAAF
:101AA0000320F06054F81C3CD4E900021043186095
:101AB00054F81C0D026842F001020260656484F86B
:101AC0004110256384F84250002070BD0080000260
:101AD00070B586B0044614216846FEF743FC2568BD
:101AE00000212F4C12232F4E04202D4A0834B542DA
:101AF00019D1156845F002051560126802F002025E
:101B00000592C0220092CDE90131CDE903102648AB
:101B10006946FFF71BFE206840F400102060206833
:101B200000F400101BE0214EB5421BD1156845F0B2
:101B300020051560126802F020020592032200922F
:101B4000CDE90131CDE9031019486946FFF7FEFDE3
:101B5000206840F480002060206800F48000059038
:101B600006B070BD134EB542FAD1156845F0800538
:101B70001560126802F0800205924FF4C072009264
:101B8000CDE90131CDE903100B486946FFF7DEFDD1
:101B9000206840F400002060206800F40000DEE7C8
:101BA000E04402580054004000040258005800402D
:101BB00000140258005C0040001C02580248816872
:101BC000027811448160704700000020032010B5A6
:101BD00000F076F801F04AF90E490F4A0F4B0C68F5
:101BE000C4F30324145D04F01F04E0401860096886
:101BF00001F00F01515C01F01F01C8400849086065
:101C0000002000F00FF808B1012010BD00F02AF804
:101C1000002010BD18440258686E00080C00002017
:101C20001000002070B50D4D04462878A0B14FF487
:101C30007A71B1FBF0F00A490968B1FBF0F002F0EB
:101C40002DF848B9102C07D200222146501E00F072
:101C500017F800206C6070BD012070BD00000020EE
:101C60000C000020054808B5016841F00201016040
:101C7000006800F00200009008BD0000F444025823
:101C80000E4BF0B41B680D46C3F30223C3F10706E5
:101C9000042E00D90426191D072901D2002300E0D3
:101CA000DB1E012404FA06F19C40491E2940641EF3
:101CB000994014402143F0BC05F05BB80CED00E006
:101CC000064900F0070210B54FF6FF040868044B00
:101CD000204040EA02201843086010BD0CED00E0EF
:101CE0000000FA05124970B50A68520706D40A685E
:101CF00002F00702824201D0012070BD0A6822F082
:101D0000070202430A60FFF72BFE094D4FF47A7673
:101D10000446083D07E000BFFFF722FE001BB0426B
:101D200001D9032070BD28688004F5D5002070BD5E
:101D30000C4802580248016841F480710160704704
:101D40000048025810B501F091F8064A0649126899
:101D5000064BC2F303229A5C02F01F02D0400860D7
:101D600010BD0000184402580C000020686E0008E6
:101D700010B501F041F805490968054AC1F302119F
:101D8000515C01F01F01C84010BD00002044025802
:101D9000686E0008494930B5484C0B1D0A680C3480
:101DA00009681D68246802F0030305F00102C1F30D
:101DB0000511C4F3CC04002914FB02F200EE102A32
:101DC000F8EE400A75D03F4A9FED3D1AB7EE000A83
:101DD0006BB1DFED3D1A012B01D0022B64D002EE76
:101DE000101A1168F8EE422A81EEA22A21E0334C43
:101DF000283C23689B0612D5344B246801EE901AC8
:101E00001168C4F3C104F8EE612AE34001EE903A90
:101E1000C1F30801F8EE611A81EEA22A0BE001EE8F
:101E2000901ADFED2B2A00BFF8EE611A116882EEDE
:101E3000A12AC1F3080101EE901A1168F8EE611AA7
:101E400040EE811A71EE800A62EE200AC1F346214B
:101E500001EE101AB8EE411A31EE001AC0EE811AE6
:101E6000BCEEE11A80ED001A1168C1F3064101EEE3
:101E7000101AB8EE411A31EE001AC0EE811ABCEE0B
:101E8000E11A80ED011A1168C1F3066101EE101A22
:101E9000B8EE411A31EE000A80EE801ABCEEC10A9B
:101EA00080ED020A30BD04E001EE901ADFED092A50
:101EB000BAE70021016041608160F3E728440258DD
:101EC00000000039304402580024744A0090D003C6
:101ED0000024744C20BCBE4B494930B5484C0B1D06
:101EE0000A68143409681D68246802F0030305F0C9
:101EF0001002C1F30531C4F3CC04002914FB02F233
:101F000000EE102AF8EE400A75D03F4A9FED3D1AC8
:101F1000B7EE000A6BB1DFED3D1A012B01D0022BA9
:101F200064D002EE101A1168F8EE422A81EEA22A5D
:101F300021E0334C283C23689B0612D5344B24689F
:101F400001EE901A1168C4F3C104F8EE612AE3406F
:101F500001EE903AC1F30801F8EE611A81EEA22A6F
:101F60000BE001EE901ADFED2B2A00BFF8EE611AAC
:101F7000116882EEA12AC1F3080101EE901A1168DE
:101F8000F8EE611A40EE811A71EE800A62EE200AC4
:101F9000C1F3462101EE101AB8EE411A31EE001AD3
:101FA000C0EE811ABCEEE11A80ED001A1168C1F38F
:101FB000064101EE101AB8EE411A31EE001AC0EED9
:101FC000811ABCEEE11A80ED011A1168C1F30661B5
:101FD00001EE101AB8EE411A31EE000A80EE801AB6
:101FE000BCEEC10A80ED020A30BD04E001EE901A99
:101FF000DFED092ABAE70021016041608160F3E763
:102000002844025800000039384402580024744A19
:102010000090D0030024744C20BCBE4B494930B51D
:10202000484C0B1D0A681C3409681D68246802F0BE
:10203000030305F48072C1F30551C4F3CC040029F5
:1020400014FB02F200EE102AF8EE400A75D03F4A67
:102050009FED3D1AB7EE000A6BB1DFED3D1A012B83
:1020600001D0022B64D002EE101A1168F8EE422A59
:1020700081EEA22A21E0334C283C23689B0612D52E
:10208000344B246801EE901A1168C4F3C104F8EED1
:10209000612AE34001EE903AC1F30801F8EE611ABB
:1020A00081EEA22A0BE001EE901ADFED2B2A00BF91
:1020B000F8EE611A116882EEA12AC1F3080101EE5F
:1020C000901A1168F8EE611A40EE811A71EE800ADA
:1020D00062EE200AC1F3462101EE101AB8EE411A51
:1020E00031EE001AC0EE811ABCEEE11A80ED001A42
:1020F0001168C1F3064101EE101AB8EE411A31EE33
:10210000001AC0EE811ABCEEE11A80ED011A1168C6
:10211000C1F3066101EE101AB8EE411A31EE000A61
:1021200080EE801ABCEEC10A80ED020A30BD04E0E8
:1021300001EE901ADFED092ABAE700210160416043
:102140008160F3E7284402580000003940440258F7
:102150000024744A0090D0030024744C20BCBE4B71
:102160002DE9F0434FF48078014640455F48DFF8A1
:1021700078C189B05E4C4FF080565E4DACF10402E0
:102180004FEA20134FF0005729D1DCF8001001F07E
:10219000070105291FD2DFE801F0030A0F20140010
:1021A00003A8FFF7F7FD049809B0BDE8F08368467F
:1021B000FFF792FE0098F7E706A8FFF72FFF0698B3
:1021C000F2E7116811F04051EED0B14277D11846D4
:1021D000EAE72046E8E70020E6E72846E4E7B1F52D
:1021E000007F18D0DFF81081B1F5806F24D0B1F5F1
:1021F000006F36D04FF4805949454ED1DCF80010BD
:1022000001F4E041B1F5005FD6D03FDC0029C7D032
:102210004945E0D1CBE7DCF8001001F4E0718029FA
:10222000CAD004DC0029BBD04029D4D1BFE7C029E3
:10223000D3D04145CFD1C4E7D8F8001001F46001F4
:10224000B1F5800FB8D005DC0029A9D0B1F5001F89
:10225000C1D1ACE7B1F5C00FBFD0B1F5000FBAD115
:10226000AFE7D8F8001001F0E061B1F1007FA3D032
:1022700005DC002994D0B1F1807FACD197E7B1F1B2
:10228000407FAAD0B1F1806FA5D19AE7B1F5405F48
:10229000A3D0B1F5804F9ED193E7B1F5002F4FF455
:1022A00080350DD0A94296D1106810F48030AED0A0
:1022B000A84290D16846FFF70FFE029874E70FE03E
:1022C000D8F8001011F44031A4D0A94203D0B1F5E0
:1022D000003F80D175E706A8FFF7A0FE089863E7E6
:1022E000B94296D175E70000504402580090D003DF
:1022F00040787D010080BB00584402582DE9FC5F06
:10230000044650F8241B002500902E460801FE4F7D
:10231000DFF8F8931DD5606E50B1B0F5801F0CD07A
:10232000B0F5001F0ED0B0F5401F1DD001250FE005
:10233000386840F40030386016E00221201D02F0B9
:102340000FFD03E00098022102F09AFD05000BD07A
:102350002E462088C00523D5606D05281ED2DFE8F3
:1023600000F00C11161B1B00626ED9F8001021F44E
:1023700040111143C9F80010EBE7386840F4003011
:10238000386009E00021201D02F0EAFC03E000981B
:10239000002102F075FD05466DB100E001252E46D5
:1023A0002088800528D5A06D80281ED00CDC90B137
:1023B00040280ED114E0626DD9F8001021F0070119
:1023C0001143C9F80010EBE7C02813D0B0F5807FA7
:1023D00010D001250FE0386840F40030386009E083
:1023E0000021201D02F0BCFC03E00098002102F057
:1023F00047FD054695B12E462088DFF8108340053D
:1024000008F108082CD5D4F8A400B0F5800F20D02E
:102410000DDCA0B1B0F5001F0FD115E0A26DD9F809
:10242000001021F4E0711143C9F80010E4E7B0F5A1
:10243000C00F13D0B0F5000F10D001250FE03868A1
:1024400040F40030386009E00021201D02F088FCD3
:1024500003E00098002102F013FD054675B12E46F9
:10246000208800052DD5D4F8A800B0F1007F21D038
:102470000EDCA8B1B0F1807F10D116E0D4F8A42012
:10248000D8F8001021F460011143C8F80010E7E704
:10249000B0F1407F13D0B0F1806F10D001250FE074
:1024A000386840F40030386009E00021201D02F057
:1024B00057FC03E00098002102F0E2FC05466DB1F4
:1024C0002E46206880011FD5A06CD8B110280FD0EF
:1024D000202812D0302815D0012514E0D4F8A820E7
:1024E000D8F8001021F0E0611143C8F80010E8E7C7
:1024F000386840F40030386004E00221201D02F00A
:102500002FFC05466DB12E462088C0042BD5E06D0A
:10251000B0F5005F20D00DDCA0B1B0F5805F0FD129
:1025200015E07A48A26C001F016821F030011143C8
:102530000160E9E7B0F5405F13D0B0F5804F10D0EF
:1025400001250FE0386840F40030386009E00021D0
:10255000201D02F005FC03E00098002102F090FC31
:10256000054685B12E462088800429D5206EB0F519
:10257000403F23D010DC08B3B0F5803F14D0B0F555
:10258000003F0FD115E0E26DD9F8001021F4E041D1
:102590001143C9F80010E6E7B0F5802F0ED0B0F572
:1025A000A02F0BD001250AE00121201D02F0D8FB4D
:1025B00003E00098012102F063FC05468DB12E4630
:1025C000208840042AD5D4F8AC00B0F1405F23D075
:1025D00010DC08B3B0F1805F14D0B0F1005F0FD110
:1025E00015E0226ED9F8001021F4E0211143C9F85A
:1025F0000010E5E7B0F1804F0ED0B0F1A04F0BD046
:1026000001250AE00121201D02F0AAFB03E0009849
:10261000012102F035FC05466DB12E4620880004EC
:102620001FD5E06ED8B1B0F1805F0ED0B0F1005F81
:1026300010D0012514E0D4F8AC20D8F8001021F017
:10264000E0411143C8F80010E8E7386840F4003072
:10265000386004E00121201D02F082FB05466DB1C7
:102660002E462068C0011ED5606CD0B101280ED066
:10267000022811D0032814D0012513E0E26ED9F806
:10268000001021F040511143C9F80010E9E7386803
:1026900040F40030386004E00221201D02F060FBAD
:1026A000054685B12E462068DFF85CB04002ABF1EC
:1026B0001C0B57D51648016841F480710160FFF783
:1026C0004FF982460EE01148626C001F016821F04C
:1026D000030111430160E6E7FFF742F9A0EB0A00AE
:1026E00064283DD80A480068C005F5D57DBBDFF8F1
:1026F0001CA0B4F8B0100AF1200ADAF8000001F4C6
:10270000407100F4407005E02C44025850440258D7
:1027100000480258884211D0DAF80010DAF8002098
:1027200021F4407142F48032CAF80020DAF8002027
:1027300022F48032CAF80020CAF80010D4F8B000A1
:10274000B0F5807F21D1FFF70BF9019019E008E087
:10275000FFF706F90199411A41F28830814210D9F8
:1027600003252E462078DFF82CA4C0073DD0A06FAB
:10277000182838D026DC80B3082829D0102825D185
:102780002CE0DAF800008007E2D5D4F8B010C1F3ED
:102790000120032858460DD0016821F47C510160C6
:1027A000B4F8B020DAF80010C2F30B021143CAF8F3
:1027B0000010D7E7F84A036802EA111223F47C51AB
:1027C0001143ECE720280ED028280CD001250BE07F
:1027D0000121201D02F0C4FA04E004E00098012168
:1027E00002F04EFB05465DB12E46207880071ED5CF
:1027F000606F062819D2DFE800F0160C11161616C5
:10280000A26FDAF8001021F038011143CAF8001065
:10281000EBE70121201D02F0A3FA03E0009801215B
:1028200002F02EFB054675B100E001252E4620780A
:1028300040071FD5D4F89000062819D2DFE800F031
:10284000160C11161616626FDAF8001021F0070147
:102850001143CAF80010EAE70121201D02F080FAB6
:1028600003E00098012102F00BFB05469DB100E05A
:1028700001252E46207880062BD5D4F88C00B0F1A7
:10288000405F24D011DC10B3B0F1805F15D0B0F1FF
:10289000005F10D116E0D4F89020D8F8001021F095
:1028A00007011143C8F80010E4E7B0F1804F0ED0E3
:1028B000B0F1A04F0BD001250AE00021201D02F04D
:1028C0004FFA03E00098022102F0DAFA05468DB1D2
:1028D0002E46207840062BD5D4F89800B0F5406FEE
:1028E00024D011DC10B3B0F5806F15D0B0F5006FB7
:1028F00010D116E0D4F88C20DAF8001021F0E04175
:102900001143CAF80010E4E7B0F5805F0ED0B0F5CF
:10291000A05F0BD001250AE00021201D02F020FA63
:1029200003E00098022102F0ABFA05468DB12E4675
:10293000207800062BD5D4F89C00B0F5C04F24D0E9
:1029400011DC10B3B0F5005F15D0B0F5804F10D199
:1029500016E0D4F89820D8F8001021F4E051114383
:10296000C8F80010E4E7B0F5004F0ED0B0F5204FE6
:102970000BD001250AE00021201D02F0F1F903E04F
:102980000098022102F07CFA054665B32E462078B5
:1029900000070BD5D4F88010B1F5805F2DD0DAF8A0
:1029A000002022F440520A43CAF800202078C006D2
:1029B0000BD5D4F89410B1F5807F26D0D8F800203C
:1029C00022F440720A43C8F800202068000330D582
:1029D000D4F8A00008B3B0F5803F23D0B0F5003F95
:1029E00025D0012524E0D4F89C20D8F8001021F44B
:1029F00060411143C8F80010C9E70098022102F0B5
:102A00003FFA0028D2D00126D0E70098022102F038
:102A100037FA0028D9D00126D7E70021201D02F07F
:102A20009FF903E00098022102F02AFA054685B1D9
:102A30002E462068400322D5D4F88400B0F5801FCC
:102A400011D0B0F5001F13D0B0F5401F15D00125EF
:102A500014E0D4F8A020D8F8001021F4403111433C
:102A6000C8F80010E5E7386840F40030386004E04A
:102A70000098012102F004FA054655B12E4620685F
:102A8000C0031CD5E06C70B1B0F5803F10D00125BB
:102A900014E0D4F88420DAF8001021F44011114336
:102AA000CAF80010EBE7386840F40030386004E002
:102AB0000221201D02F054F90546CDB12E462068B2
:102AC000800005D50098022102F0DAF900B1012654
:102AD000206880031BD5E06FB8B1B0F5807F10D0BF
:102AE000B0F5007F11D0B0F5407F0ED001250DE08C
:102AF0002848E26C0838016821F4803111430160F4
:102B0000DDE7386840F400303860EDB32E462068C9
:102B1000C00207D5226FD9F8001021F000411143FF
:102B2000C9F800102068C00008D5D4F8B420DBF83C
:102B3000001021F480411143CBF80010206880027E
:102B400007D5A26ED9F8001021F080711143C9F8A1
:102B50000010206840000CD5DBF8001021F4004183
:102B6000CBF80010DBF80010D4F8B8201143CBF8F4
:102B700000102068002809DA0648226D083801682C
:102B800021F04051114300E008E001607EB10120D6
:102B9000BDE8FC9F54440258CFFFFF00E26FDAF813
:102BA000001021F440711143CAF80010AFE7002073
:102BB000EEE700002DE9F05F04000F467ED0DFF85D
:102BC0002482D8F8000000F00F00B8420CD2D8F8E8
:102BD000001021F00F013943C8F80010D8F80000A8
:102BE00000F00F00B84269D120787F4D40070AD528
:102BF0002069296801F07001884204D9296821F010
:102C00007001014329602078774E361D00070AD5F0
:102C10006069316801F07001884204D9316821F09F
:102C20007001014331602078C0060AD5A06931687F
:102C300001F4E061884204D9316821F4E061014384
:102C400031602078DFF8A0B180060BF1080B0CD5BD
:102C5000E1695846DBF8002002F07002914204D985
:102C6000026822F070020A430260207880070AD5C9
:102C7000E068296801F00F01884204D9296821F031
:102C80000F01014329602078C0073ED05649A26851
:102C90002868183920F470601043286060680228A2
:102CA00018D0032819D00968012819D0490700292C
:102CB0004ADADFF834A1AAF1080A00E044E0DAF8C1
:102CC000002022F007020243CAF80020FEF748FE67
:102CD000814612E009688903E9E709688901E6E7A6
:102CE000C905E4E7FEF73CFEA0EB090141F288309C
:102CF000814202D90320BDE8F09F6168DAF8000044
:102D000000F03800B0EBC10FECD1207880070AD575
:102D1000E068296801F00F01884204D2296821F097
:102D20000F0101432960D8F80010404601F00F015F
:102D3000B9420BD9016821F00F01394301600068E5
:102D400000F00F00B84201D00120D4E720784007FE
:102D50000AD52069296801F07001884204D22968E7
:102D600021F0700101432960207800070AD56069CD
:102D7000316801F07001884204D2316821F070019D
:102D8000014331602078C0060AD5A069316801F49A
:102D9000E061884204D2316821F4E061014331608E
:102DA000207880060CD5E1695846DBF8002002F057
:102DB0007002914204D2026822F070020A4302605B
:102DC00000F054F82968094AC1F30321515C01F06D
:102DD0001F01C8400649086006480068BDE8F05F6A
:102DE000FEF720BF0020005218440258686E000809
:102DF0000C0000200400002010B5FEF7A3FF064AD7
:102E000006491268064B02F00F029A5C02F01F029C
:102E1000D040086010BD0000184402581000002087
:102E2000686E000810B5FFF7E7FF05490968054A15
:102E3000C1F30211515C01F01F01C84010BD000038
:102E40001C440258686E000810B5FFF7D5FF05490D
:102E50000968054AC1F30221515C01F01F01C84015
:102E600010BD00001C440258686E0008454970B54A
:102E700045480968434B103B11F0380208D0011156
:102E8000082A03D0102A0BD0182A0BD0084670BD90
:102E900019688906FBD51968C1F3C101C84070BD26
:102EA0003A4870BD3749374D18310C1D24350A6832
:102EB000096826682D6802F0030406F00102C1F3D8
:102EC0000511C5F3CC0515FB02F200EE102AB8EE91
:102ED000400AE9B32F4ADFED2E0AB7EE001A6CB1B3
:102EE000DFED2D1A012C01D0022C43D002EE101A76
:102EF0001068F8EE422A81EEA22A1EE01C68A406A1
:102F000011D51B6801EE901A1168C3F3C103F8EEE6
:102F1000612AD84001EE900AC1F30800F8EE611A68
:102F200081EEA22A0BE001EE901ADFED1C2A00BF11
:102F3000F8EE611A106882EEA12AC0F3080001EED3
:102F4000900AF8EE611A40EE201A31EE810A00E094
:102F500015E022EE000A1068C0F34620401C00EE87
:102F6000900AF8EE600A80EE201ABCEEC10A10EE5C
:102F7000100A70BD01EE901ADFED092AD8E7002093
:102F800070BD0000104402580090D00340787D01CD
:102F900000000039304402580024744A0024744C64
:102FA00020BCBE4B2DE9F05F04007DD0FF4F2078A0
:102FB000FE4D1837DFF8F493103DC00748D0D9F81C
:102FC0000000396800F03800102815D0182803D107
:102FD00001F0030002280FD06068B0F5803F12D0E6
:102FE00010B1B0F5A02F18D0286820F480302860E8
:102FF000286820F4802009E02868800328D56068CC
:103000000028D2D024E0286840F48030286060682E
:1030100088B1FEF7A5FC064609E0286840F4802048
:103020002860F0E7FEF79CFC801B64286FD82868B6
:103030008003F7D50CE0FEF793FC064605E000BFE1
:10304000FEF78EFC801B6428F0D828688003F7D434
:10305000207841F20308D54E0C3E800761D5D9F89F
:103060000000396810F038000ED0182801D1880708
:103070000AD0E06880B3296821F019010143296072
:10308000FEF76EFC82462FE02868400702D5E06814
:1030900000288AD0E168286820F0190008432860D9
:1030A000FEF75EFC824607E0D1E000BFFEF758FC69
:1030B000A0EB0A000228B9D828684007F6D500BF5F
:1030C000FEF748FC404513D82069316821F47C3173
:1030D00041EA0030306024E011E000BFFEF740FC20
:1030E000A0EB0A000228A1D828684007F6D5E7E738
:1030F000207C316821F0FE4141EA0060EAE728685F
:1031000020F001002860FEF72BFC824606E0FFE07D
:10311000FEF726FCA0EB0A00022887D828684007A3
:10312000F6D42078C00657D5D9F80000DFF87CB275
:10313000396800F03800ABF1040B082810D01828CB
:1031400003D101F0030001280AD0E06900282868B3
:1031500032D040F080002860FEF702FC824623E077
:103160002868C00523D5E069802870D11FE000BF22
:1031700094F82000316821F0F84141EA8060306025
:103180002AE000BF94F82010DBF8002022F07C52E7
:1031900042EA0161CBF800101EE000BFFEF7E0FB41
:1031A000A0EB0A00022886D82868C005F6D5FEF7ED
:1031B000D1FB4045E6D8DBE720F080002860FEF731
:1031C000CFFB064605E000BFFEF7CAFB801B0228C6
:1031D00089D82868C005F7D42078000729D5734816
:1031E0006169643000298046016811D041F0010115
:1031F0000160FEF7B5FB064605E000BFFEF7B0FB39
:10320000801B022889D8D8F800008007F6D510E086
:1032100021F001010160FEF7A3FB064605E000BFB7
:10322000FEF79EFB801B022872D8D8F800008007AA
:10323000F6D42078800623D5A0690028286810D00D
:1032400040F480502860FEF78BFB064605E0E6E080
:10325000FEF786FB801B02285AD828688004F7D521
:103260000EE020F480502860FEF77AFB064604E06A
:10327000FEF776FB801B02284AD828688004F7D422
:10328000207840074FD5DFF82881D8F8001041F4A6
:103290008071C8F80010FEF763FB064605E000BF2A
:1032A000FEF75EFB801B642832D8D8F80000C0050A
:1032B000F6D53E4EA068603601280AD008B1052830
:1032C00013D0306820F001003060306820F0040036
:1032D00002E0306840F001003060A06841F2883AB6
:1032E00090B1FEF73DFB80460AE0306840F00400F4
:1032F0003060EEE7FEF734FBA0EB0801514507D83C
:1033000030688007F6D50EE0FEF72AFB804607E01E
:1033100084E000BFFEF724FBA0EB080151457DD8F7
:1033200030688007F6D4606AF0B3D9F80010C1F3B2
:10333000C201032973D00228286820F08070286019
:1033400003D0FEF70DFB044680E0FEF709FB0646BE
:1033500005E000BFFEF704FB801B022873D8286835
:103360008001F7D4E26A40F2F331386854F8283F1C
:10337000884340EA021018433860217B4FF4FE0C6A
:1033800022894FF0FE47208A4902084B521E267DB3
:10339000A1F5007189B2401EC2F308022033114327
:1033A000761E0CEA004005E053E00000104402588D
:1033B00000480258014307EA0662181F11431960CA
:1033C0001A1D016821F00101016011684FF6F876BD
:1033D000236AB14341EAC30111600168A26921F087
:1033E0000C01114301600168E26921F002011143FF
:1033F0000160016841F480310160016841F40031ED
:103400000160016841F480210160016841F001011F
:103410000160286840F08070286001E013E01AE045
:10342000FEF79EFA044604E0FEF79AFA001B022813
:1034300009D828688001F7D50BE000BFFEF790FAA5
:10344000001B022802D90320BDE8F09F28688001F4
:10345000F4D40020F8E70120F6E700002DE9F04160
:1034600004004FF001054DD094F82100002528B943
:10347000002084F82000204600F04AF8022184F859
:103480002110CA20226853215062206841622046E0
:1034900001F086FD216800284FF0FF0005D00422CE
:1034A0004862012584F821202CE0184E01238A6807
:1034B00032408A60D4E9002CA769266991683E43AE
:1034C00041EA0C01314391602268E1681161216891
:1034D00022890E6946EA02420A612168CA6822F01E
:1034E0008002CA602168CA6C22F00302CA642168A3
:1034F0006669E269CF6C32433A43CA642168486224
:1035000084F821302846BDE8F0810000BFFF8FFF1E
:1035100000680449884204D10348016841F400412D
:103520000160704700400058704402582DE9FE4386
:1035300004460F46C16B032084F8340003295CD095
:10354000B7F5004F59D0B7F5804F4FF000054FF455
:1035500000664FF0806904D007B3A06B40F00060B4
:103560003FE0009500210195206802F001F88001FC
:103570001CD46946204602F02DF870BB0198400328
:103580002DD5B4F848102068090401F026FD20BBB1
:10359000206802211DE0A06B284322E00095002155
:1035A0000195206801F0E4FF800101D53546F2E77E
:1035B0006946204602F00EF878B90198C0030ED58E
:1035C000B4F848102068090401F007FD28B9206804
:1035D000002101F04CFD0028DDD00546DBE74D461B
:1035E000D9E7A063A06B012558B12168134888630F
:1035F00084F834500120BDE8FE83A06B40F0805079
:10360000EFE7D4E90460D4E901123B46042807D26D
:10361000E76DB7F5007F03D0B7F5807F0BD00420AE
:10362000CDF80880CDE90060206801F0A5FF84F89E
:1036300034500020DFE70220F2E70000FF0FE01F18
:1036400070470000F0B5026E920F0A70026EC2F36E
:1036500083624A70026EC2F301628A70026E120CBB
:10366000CA70B0F86020120A0A7190F860204A719E
:10367000426E120DCA80426EC2F303420A72B0F863
:103680006420C2F3C0324A72B0F86420C2F38032C0
:103690008A72B0F86420C2F34032CA72B0F8642073
:1036A0000026C2F300320A734E730122C36B4FF43B
:1036B000007463B1012B3AD0036850499963816B60
:1036C00041F08051816380F834200120F0BDB0F8D2
:1036D0006430856E9B051B0D43EA95730B61836E09
:1036E000C3F3C2630B75836EC3F302634B75836EC2
:1036F000C3F342538B75836EC3F38243CB75836EE2
:10370000C3F3C2330B760D696D1CC5640B7E03F0E9
:1037100007039B1C9D40C5640B7A846503F00F036F
:1037200002FA03F35F0A7D43C0E914350EE090F816
:103730006450836EAD06AD0A45EA13430B610B6915
:103740005B1C9B02C364C0E914438465B0F8683015
:10375000C3F380334B76B0F86830C3F3C6138B766F
:1037600090F8683003F07F03CB76C36EDB0F0B77E6
:10377000C36EC3F341734B77C36EC3F382638B771E
:10378000C36EC3F38353CB77C36EC3F3405381F847
:10379000203081F82160C36EC3F3004381F82230EA
:1037A000B0F86C30C3F3C03381F82330B0F86C301C
:1037B000C3F3803381F82430B0F86C30C3F3403366
:1037C00081F82530B0F86C30C3F3003381F826302F
:1037D000B0F86C30C3F3812381F82730B0F86C3037
:1037E000C3F3012381F8283090F86C00C0F3460041
:1037F00081F8290081F82A200020F0BDFF0FE01F8A
:1038000070B5B0F84810002504460068090401F0BE
:103810000DFD18B1A16B0143A16304E020680021F4
:1038200001F0A6FE0546C5F3432070BD30B591B04A
:103830000C460546694602F04DF858B12B68012246
:1038400021499963A96B0143A96385F83420104687
:1038500011B030BD0098C0F3811020700098C0F303
:1038600040106070009A4FF47F40114600EA122227
:1038700042EA11616180019909BA6160029921727D
:103880000299090A61720299C1F30351A172DDE93B
:10389000022100EA1240C9B20843A0810398C0F394
:1038A0008520A0730398C0F30120E0730398C0F350
:1038B00003102074039800F00F0060740498000E49
:1038C000A0740020C4E70000FF0FE01FF0B5040063
:1038D00085B024D094F83400002538B9A069257744
:1038E00008B90220A061204600F082F8032084F885
:1038F0003400204600F03CF888B969462046FFF7BE
:1039000095FF60B99DF81010E26B9DF81100012A37
:1039100008D0E5652046E168FFF708FE58B10120B0
:1039200005B0F0BD014302D04FF4007001E04FF448
:103930008070E065EEE7FEF713F80127064604E025
:10394000FEF70EF8801B401C0AD02046FFF758FFF8
:103950000428F5D1A563256384F834700020DFE7DF
:103960004FF00040A06384F834700320D8E70000D3
:10397000FEB58269002104464FF0FA06022A0A4683
:10398000134604D125682F6847F010072F60CDE952
:1039900000360294206801F0EFFD18B9206801F0AC
:1039A000FBFD08B10120FEBD4FF48030FEF7D8FBCF
:1039B0004FF4FA71B0FBF1F020B10C49B1FBF0F01B
:1039C000401C00E00220FDF7D7FB204601F0DEFEA0
:1039D0004FF0010520B9204601F06EFE0028E2D02C
:1039E00084F83450A16B0143A163DBE7102101008F
:1039F000F0B587B0044614216846FCF7B3FC1A49B9
:103A0000206888422DD11948016841F48031016055
:103A1000006800F48030059014480C30016841F0D3
:103A200004010160016801F004010591016841F0A1
:103A300008010160006802240025694600F00800C2
:103A4000059003260C274FF4F8508DE8F100084844
:103A5000FDF77CFE042069468DE8F1000548FDF77E
:103A600075FE07B0F0BD000000700052D44402584B
:103A700000080258000C02582DE9F047040029D034
:103A80004A4A4FF000092068494B4A4D9042C4F819
:103A9000289006D0984204D0A84202D0E1680F29AD
:103AA00018D8E1684FF0010AE76B0831C9080AEB42
:103AB00057167143904205D0984203D0A84201D0D6
:103AC000082907D8904203D0984201D0A84204D1D7
:103AD000102902D90120BDE8F08794F8810020B9AF
:103AE000204684F8809000F067F8022084F8810076
:103AF0002068016821F001010160A069B0F1806FC8
:103B00000AD16068B0F5800F06D1A06B20B920689B
:103B1000016841F480510160A56AE0692368E16BA6
:103B20002843E268084310439860D4E90D02D4E9C1
:103B300005C1636A25691843D4F820800A432668C2
:103B400010432843A56DD4E90172D4E9123140EA4B
:103B50000C0040EA08003843084310431843284348
:103B6000F060606868B92068816821F4C05141F450
:103B7000006181602068816821F4C06141F4806146
:103B800081602068016D21F00101016560684002DB
:103B900006D52068626DC16821F000411143C16003
:103BA000C4F8849084F881A0002094E7003001409C
:103BB00000380040003C004070B586B00546142136
:103BC0006846FCF7CFFB286800242A4A02252849CA
:103BD000052690422BD126481030026842F48052CC
:103BE0000260006800F480500590086840F008000A
:103BF0000860086800F008000590086840F0400080
:103C000008600868694600F0400005908020009038
:103C1000CDE901541848CDE90346FDF797FD4FF46F
:103C20006060009015486946CDE901541AE0144AD5
:103C300090421BD10E480830026842F48042026074
:103C4000006800F480400590086840F480700860C7
:103C50000868694600F4807005900F2000900948BC
:103C6000CDE90154CDE90346FDF770FD06B070BD06
:103C7000E044025800300140000C0258001802587D
:103C8000003800400020025803490A6822F460020C
:103C900002430A607047000004040058401EB0F15F
:103CA000807F10B501D3012010BD4FF0E02460618A
:103CB0000F21601703F05DF80020A061072121614A
:103CC00010BD00002DE9F04390F83C20012A42D0BD
:103CD000012280F83C2051F80C4BDFF880804FF037
:103CE000000991E8680051E9022723F44073B1F814
:103CF0000CC03B43CF6923F480631343026823F471
:103D00000063234323F4805343EA050323F4005361
:103D100043EA060323F4804343EA07030C3923F400
:103D20007023424543EA0C4302D00D4CA2420CD111
:103D30008D8C23F47006D1E9073446EA055121F051
:103D40008071194321F000732343536480F83C9041
:103D50000020BDE8F0830220FBE7000000000140E6
:103D60000004014070B590F83C20012A24D0134C87
:103D7000012580F83C50022280F83D2002685368FB
:103D8000A242966802D00E4CA24203D14C6823F4A2
:103D9000700323430C6823F0700389681C4354604C
:103DA000002326F0800602683143916080F83D5080
:103DB00080F83C30184670BD022070BD0000014004
:103DC000000401402DE9F04104000D4603D094F8B1
:103DD0003D0018B108E00120BDE8F081002084F822
:103DE0003C00204600F042F81F4A022084F83D00C3
:103DF00020688168114081602068211D01F0AEFEBD
:103E0000226840F20336AF6940F60C4C2B684FF243
:103E1000F00EA86891680B439169B14341EA07210C
:103E20000843D5E9031720EA0C00D5E9076C20EA1E
:103E30000E00D2F820E03F0140EA062668686D696E
:103E4000314347EA0C37936023680F4301229F6197
:103E50002EF0AA0141EA051321681843086284F88C
:103E60003D200020B8E70000F8BFFEFF30B587B066
:103E7000044614216846FCF775FA1A4920688842FE
:103E80002ED11948016841F002010160006800F07C
:103E90000200059014480838016841F004010160EF
:103EA000016801F004010591016841F0020101601F
:103EB000006802240025694600F0020005904020B9
:103EC0008DE831000948CDE90354FDF73FFC20207F
:103ED00069468DE831000648CDE90354FDF736FC0C
:103EE00007B030BD00040040E84402580008025802
:103EF0000004025810B586B0044614216846FCF749
:103F000031FA0E492068884216D10D48016841F007
:103F10000101016000680123022200F00100059008
:103F200000204FF4807100916946CDE90120CDE970
:103F300003030448FDF70AFC06B010BD0000014071
:103F4000E04402580000025870B5044690F83C0066
:103F50000D4601280ED0012684F83C60022084F82A
:103F60003D000C2A45D007DC5AB1042A1BD0082A90
:103F700078D12CE0022070BD102A4ED0142A71D1C5
:103F80005DE0206801F04CFE2068816941F0080185
:103F900081612068816921F00401816120682A69BA
:103FA0008169114311E0206801F08EFE206881696B
:103FB00041F4006181612068816921F4806181613F
:103FC00020682969826942EA012181614AE020680A
:103FD00001F0C6FE2068C16941F00801C161206896
:103FE000C16921F00401C16120682A69C1691143D6
:103FF00011E0206801F0FAFE2068C16941F4006117
:10400000C1612068C16921F48061C16120682969AA
:10401000C26942EA0121C16124E0206801F01CFF6D
:104020002068416D41F0080141652068416D21F033
:104030000401416520682A69416D114311E020683F
:1040400001F040FF2068416D41F400614165206846
:10405000416D21F48061416520682969426D42EA21
:1040600001214165002084F83D6084F83C0070BD6A
:1040700010B5040003D094F83D0010B107E0012012
:1040800010BD002084F83C00204600F00DF802200E
:1040900084F83D002068211D01F060FD012084F8B6
:1040A0003D00002010BD000008B5006806498842A8
:1040B00008D10648016841F001010160006800F084
:1040C0000100009008BD000000000140F0440258CB
:1040D00030B590F87C10012918D0012280F87C209E
:1040E0002421C0F880100022202450F8601B0B68A7
:1040F0000D6823F0005325F001050D60426050F873
:10410000601C0B6004620277104630BD022030BD97
:1041100070B5044690F87C0001281DD0012284F877
:104120007C202420C4F8800020680568026822F002
:10413000010202602068826822F060620A438260A5
:10414000204601F0F5FE2268202100201560C4F809
:10415000801084F87C0070BD022070BD70B50446EC
:1041600090F87C0001281DD0012284F87C202420B6
:10417000C4F8800020680568026822F0010202602D
:104180002068826822F060420A438260204601F083
:10419000CFFE2268202100201560C4F8801084F82A
:1041A0007C0070BD022070BD10B5040003D0D4F8AF
:1041B000800010B107E0012010BD002084F87C00D1
:1041C000204600F027F82420C4F880002068016809
:1041D00021F001010160204601F070FF0128EBD0C1
:1041E000A06A10B1204601F0D5FE2068416821F494
:1041F000904141602068816821F02A018160206837
:10420000016841F0010101602046BDE8104001F065
:1042100025BF0000F0B587B0054614216846FCF7BD
:10422000A1F870490024286802256F4E08396D4AAC
:104230000823B04217D1106840F4002010601068C5
:1042400000F400200590086840F0800008600868CD
:10425000694600F0800005904FF4C040009063482C
:10426000CDE9015454E0624EB0421DD1106840F4D3
:1042700080101060106800F480100590086840F00D
:104280000200086008680E2100F0020005904FF45B
:1042900040500090CDE90154CDE9034155486946AD
:1042A000FDF754FA07B0F0BD534F0726B84216D1B8
:1042B000106840F080401060106800F08040059069
:1042C000086840F0200008600868694600F0200097
:1042D0000590C02000904948CDE901547FE0484F47
:1042E000B84218D1106840F000401060106800F02B
:1042F00000400590086840F01000086008686946B2
:1043000000F010000590032000903E48CDE90154D4
:10431000CDE90343C4E7334B3B4F0833B84217D1D1
:10432000186840F010001860186800F01000059040
:10433000086840F0010008600868694600F0010064
:1043400005904FF4C06000903048CDE9015446E03C
:104350002F4FB84217D1106840F4802010601068C9
:1043600000F480200590086840F0080008600868A4
:10437000694600F0080005904FF440700090254811
:10438000CDE901542BE0244A90428BD1186840F0CB
:1043900020001860186800F020000590086840F0C0
:1043A00004000860086800F004000590086840F008
:1043B000400008600868694600F0400005908020D1
:1043C0000090CDE901541548CDE90346FDF7BEF94B
:1043D0004FF48040009012486946CDE90154CDE980
:1043E00003465DE7E8440258004C0040001C0258B8
:1043F00000500040000402580078004000140258A9
:10440000007C0040001002580010014000000258DB
:1044100000480040000C02580014014000080258F7
:1044200000180258FEE78068C0F3C000704780683B
:10443000C0F3800070478068C0F38000704710B5FB
:10444000042404EAD1540723C1F3045120448B40CF
:104450008A40416999431143416110BD30B58BB029
:10446000002468461C21079408940994FBF77AFFFE
:104470001A480425184A0121C0E900248460C0E9D3
:104480000345047544758161047744628462C462A3
:104490000463446380F83840FCF72CFD08B1FCF756
:1044A000C3F90E4807A90794FCF7A4FA08B1FCF772
:1044B000BBF90B48062140F2FF728DE8130005940A
:1044C00069460648CDE90325FCF726FB002801D004
:1044D000FCF7AAF90BB030BD002002401400002008
:1044E0000002B0251848E12270B516490024016089
:1044F0008021456801232C7040F2F45546687170A4
:1045000041688A704168CC7041680C7141684C7197
:104510000E490372C1600E49C0E90415FCF73EFE66
:1045200008B1FCF781F9084834213438FBF71AFF49
:10453000054821224FF4403134380260C0E904417B
:1045400070BD000000800240AC000020600004301C
:10455000000004301648002170B5144D022481601B
:10456000012205600423C1600174417481744261B9
:10457000C0E90624C0E908428262C262C0E90C2197
:104580008163C163C0E91013C0E91213C0E91413B9
:104590008165C1650166C0E91913FCF781FF002838
:1045A00003D0BDE87040FCF73FB970BD00A00040EB
:1045B0001C0100202DE9F04F87B014216846FBF75D
:1045C000D1FE5B48016841F004010160016801F01F
:1045D00004010591016841F020010160016801F0CA
:1045E00020010591016841F080010160016801F03E
:1045F00080010591016841F001010160016801F04D
:1046000001010591016841F002010160016801F0BA
:1046100002010591016841F010010160016801F09B
:1046200010010591016841F008010160016801F085
:1046300008010591016841F040010160016801F045
:1046400040010591016841F48071016000684FF4F8
:104650000075DFF8E0B0002200F480702946059074
:104660005846FDF771F94FF4604733480022394648
:10467000FDF76AF94FF48048304800224146FDF7C3
:1046800063F94BF638492E4800224946FDF75CF99C
:104690004FF4CE7A2B4800225146FDF755F90024FD
:1046A000694668100294CDE900045846FDF74EF8BB
:1046B00000950125CDE90154694658460394FDF75C
:1046C00045F8214EA80269460294CDE900065846F5
:1046D000FDF73CF800976946CDE90154164803946C
:1046E000FDF734F8CDF800806946CDE90154134850
:1046F0000394FDF72BF8CDF800906946CDE90154FD
:104700000F480394FDF722F8CDF800A06946CDE9E3
:1047100001540C480394FDF719F860206946CDE96F
:10472000000608480294FDF711F807B0BDE8F08FC5
:10473000E0440258001402580010025800040258C5
:10474000000C0258001802580000111113480021F3
:1047500010B5114C0123124A0460C0E90121C0E9DF
:10476000033141618161C1610162FDF755F908B111
:10477000FCF75AF809480021FDF7F8F808B1FCF7F2
:1047800053F806480021FDF71DF9002803D0BDE8C5
:104790001040FCF749B810BD00540040BC01002097
:1047A000B17570301348002110B5114C0123124A25
:1047B0000460C0E90121C0E9033141618161C16147
:1047C0000162FDF729F908B1FCF72EF8094800212C
:1047D000FDF7CCF808B1FCF727F806480021FDF7F3
:1047E000F1F8002803D0BDE81040FCF71DB810BD5B
:1047F0000058004008020020B175703013480021B5
:1048000010B5114C0123124A0460C0E90121C0E92E
:10481000033141618161C1610162FDF7FDF808B1B9
:10482000FCF702F809480021FDF7A0F808B1FBF7F2
:10483000FBFF06480021FDF7C5F8002803D0BDE8BE
:104840001040FBF7F1BF10BD005C00405402002097
:10485000B17570300C4800210A4A7F2310B5FF243F
:1048600004C080E81A00C160416181610161001FDC
:10487000FEF7F4FD002803D0BDE81040FBF7D4BFDD
:1048800010BD000000400058A00200200B4800218D
:104890004FF48042084B10B5C0E90031C0E9021264
:1048A00001614161FFF712F8002803D0BDE8104014
:1048B000FBF7BABF10BD000000700052C402002018
:1048C00070B5144807244FF08042114E0021531058
:1048D000C0E9021401611512C0E90513C0E90721FE
:1048E00041628162C162C0E90D21C163016441641A
:1048F0008164C164016541658165C0E90065FFF7B8
:10490000BBF8002803D0BDE87040FBF78DBF70BD39
:10491000003001404403002070B5154803224FF4D5
:104920008005124E0021EC01C0E90212016153071B
:10493000C0E90514C0E90731416262008162C162C9
:10494000C0E90D21C163016441648164C1640165F2
:1049500041658165C0E90065FFF78EF8002803D046
:10496000BDE87040FBF760BF70BD0000003800403C
:10497000CC03002010B596B000241C210BA8129483
:1049800013941494FBF7EEFC2C216846FBF7EAFC29
:1049900021482049C0E900148460C4600461446176
:1049A0008461FFF765FB08B1FBF73EFF1A4812A9C7
:1049B000129413941494FFF7D5F908B1FBF734FF60
:1049C0006020CDE90B04144800220BA90D940E942D
:1049D0000F9410941194FFF7B7FA08B1FBF724FF76
:1049E0004FF400500094019401030294CDE9044077
:1049F00003940694CDE907410748694609940A944F
:104A0000FFF760F908B1FBF70FFF0348FFF772FAF1
:104A100016B010BD000001405404002010B58CB049
:104A200024216846FBF79EFC14480024124A012109
:104A300009940A940B94C0E900248460C460046162
:104A40008461CDE90014CDE902140494CDE9054157
:104A5000694607940894FFF7B5F908B1FBF7E4FE3F
:104A6000064809A909940B94FFF77CF9002801D0A6
:104A7000FBF7DAFE0CB010BD0004004094040020E7
:104A80001848002110B5164C0C224FF4E133046095
:104A9000C0E90131C160C0E904128161C1610162F4
:104AA00041628162FFF780FB08B1FBF7BDFE0D4854
:104AB0000021FFF753FB08B1FBF7B6FE09480021C0
:104AC000FFF726FB08B1FBF7AFFE0648FFF700FB38
:104AD000002803D0BDE81040FBF7A6BE10BD0000C3
:104AE000004C0040D40400201848002110B5164C9A
:104AF0000C224FF4E1330460C0E90131C160C0E928
:104B000004128161C161016241628162FFF74CFB65
:104B100008B1FBF789FE0D480021FFF71FFB08B124
:104B2000FBF782FE09480021FFF7F2FA08B1FBF714
:104B30007BFE0648FFF7CCFA002803D0BDE8104002
:104B4000FBF772BE10BD0000005000406005002061
:104B50001848002110B5164C0C224FF4E1330460C4
:104B6000C0E90131C160C0E904128161C161016223
:104B700041628162FFF718FB08B1FBF755FE0D4853
:104B80000021FFF7EBFA08B1FBF74EFE09480021C0
:104B9000FFF7BEFA08B1FBF747FE0648FFF798FAA1
:104BA000002803D0BDE81040FBF73EBE10BD00005A
:104BB00000780040EC0500201848002110B5164C84
:104BC0000C224FF4E1330460C0E90131C160C0E957
:104BD00004128161C161016241628162FFF7E4FAFE
:104BE00008B1FBF721FE0D480021FFF7B7FA08B125
:104BF000FBF71AFE09480021FFF78AFA08B1FBF714
:104C000013FE0648FFF764FA002803D0BDE8104001
:104C1000FBF70ABE10BD0000007C004078060020B3
:104C20001848002110B5164C0C224FF4E1330460F3
:104C3000C0E90131C160C0E904128161C161016252
:104C400041628162FFF7B0FA08B1FBF7EDFD0D4854
:104C50000021FFF783FA08B1FBF7E6FD09480021C0
:104C6000FFF756FA08B1FBF7DFFD0648FFF730FA09
:104C7000002803D0BDE81040FBF7D6BD10BD0000F2
:104C800000100140040700201848002110B5164C00
:104C90000C224FF4E1330460C0E90131C160C0E986
:104CA00004128161C161016241628162FFF77CFA95
:104CB00008B1FBF7B9FD0D480021FFF74FFA08B125
:104CC000FBF7B2FD09480021FFF722FA08B1FBF714
:104CD000ABFD0648FFF7FCF9002803D0BDE8104003
:104CE000FBF7A2BD10BD0000004800409007002067
:104CF0001848002110B5164C0C224FF4E133046023
:104D0000C0E90131C160C0E904128161C161016281
:104D100041628162FFF748FA08B1FBF785FD0D4853
:104D20000021FFF71BFA08B1FBF77EFD09480021BF
:104D3000FFF7EEF908B1FBF777FD0648FFF7C8F972
:104D4000002803D0BDE81040FBF76EBD10BD000089
:104D5000001401401C080020FEE770477047000067
:104D60002DE9F047454D044689464FF0000A286872
:104D7000C04380070AD0414E283E306820F0806052
:104D80003060FCF7EDFD0746B04608E00120BDE8C5
:104D9000F08700BFFCF7E4FDC01B022867D8D8F8F5
:104DA00000000001F6D4206829684FF4FE0721F4C2
:104DB0007C313E0241EA00302860207AA389B4F8B1
:104DC00004C040022D4D2D495B1E227CACF1010C2C
:104DD0001035091DA0F5007080B2521ECCF3080CEE
:104DE00007EA034340EA0C00184306EA0262104354
:104DF00028600868626920F0C000104308600A68F3
:104E0000A06922F0200202430A60281D0A6822F0ED
:104E100010020A6002684FF6F873E4699A4342EAA6
:104E2000C40202600868B9F1000F40F010020A6085
:104E300011D00868B9F1010F11D040F400100860DA
:104E4000D8F80000444640F08060C8F80000FCF745
:104E500087FD05460DE0086840F40020EFE740F4C8
:104E60008010ECE7FCF77CFD401B022801D90320F1
:104E70008DE720680001F5D5504688E728440258A0
:104E80002DE9F047454D044689464FF0000A286851
:104E9000C04380070AD0414E283E306820F0805041
:104EA0003060FCF75DFD0746B04608E00120BDE834
:104EB000F08700BFFCF754FDC01B022867D8D8F864
:104EC00000008000F6D4208829684FF4FE0721F006
:104ED0007C713E0241EA00502860207AA389B4F830
:104EE00004C040022D4D2D495B1E227CACF1010C0B
:104EF0001835091DA0F5007080B2521ECCF3080CC5
:104F000007EA034340EA0C00184306EA0262104332
:104F100028600868626920F44060104308600A68ED
:104F2000A06922F4007202430A60281D0A6822F474
:104F300080720A6002684FF6F873E4699A4342EAA5
:104F4000C40202600868B9F1000F40F480720A6080
:104F500011D00868B9F1010F11D040F080700860DD
:104F6000D8F80000444640F08050C8F80000FCF734
:104F7000F7FC05460DE0086840F48000EFE740F4D8
:104F80000000ECE7FCF7ECFC401B022801D90320F1
:104F90008DE720688000F5D5504688E72844025800
:104FA00070B504460068C168490614D44FF0FF315B
:104FB000C160FCF7D5FC4FF47A76054607E000BFE8
:104FC000FCF7CEFC401BB04201D9032070BD206825
:104FD000C0684006F4D5002070BD30B585B00446E9
:104FE00037204FF480720DF1080CCDE9001000233A
:104FF0006946150120468CE82C0000F0D7FA3721CD
:1050000041F28832204600F089F905B030BD30B554
:1050100085B0044629204FF480720DF1080CCDE9CB
:10502000001000236946150120468CE82C0000F092
:10503000BDFA204600F02EFA05B030BD30B504466A
:10504000102085B00DF1080C02010502CDE9001019
:10505000002369468CE82C00204600F0A7FA1021B6
:1050600041F28832204600F059F905B030BD30B524
:1050700085B0044606204FF480720DF1080CCDE98E
:10508000001000236946150120468CE82C0000F032
:105090008DFA062141F28832204600F03FF905B032
:1050A00030BD000030B585B00546002469464FF498
:1050B0008050009401940294CDE90340284600F00A
:1050C00075FA0B4A4FF4FA5041F288311268B2FB7C
:1050D000F0F04843401E03D24FF0004005B030BD11
:1050E000696B0906F6D503492046A963F6E7000077
:1050F0000C000020C500200030B50821044685B012
:105100004FF4D57000254A014B0204938DE8270027
:105110006946204600F04AFA134A4FF4FA5041F229
:1051200088311268B2FBF0F04843401E03D24FF0C2
:10513000004005B030BD616B11F0450FF5D089041A
:10514000F3D4606B400701D5042003E0606BC00717
:1051500002D00120A063ECE7606B400601D540203F
:10516000A0632846E5E700000C00002030B585B0BC
:1051700004464FF480710DF1040C072000920023C7
:105180000D018CE82B006946204600F00FFA07213C
:1051900041F28832204600F0C1F805B030BD10B5AC
:1051A00086B00446002102204FF44072C3020493EB
:1051B000CDE90010CDE902216946204600F0F6F95C
:1051C000204600F03DF906B010BD30B585B004466C
:1051D00009200DF1080C0023CDE900104FF44072B6
:1051E00069464FF4805520468CE82C0000F0DEF92B
:1051F000204600F025F905B030BD10B586B0044654
:10520000002133204FF48072CDE90221CDE9001056
:10521000130169462046049300F0C8F9332141F296
:105220008832204600F07AF806B010BD30B585B05F
:1052300004460D204FF480720DF1080CCDE90010EA
:1052400000236946150120468CE82C0000F0AEF9D9
:105250000D2141F28832204600F060F805B030BDE3
:1052600030B585B00C460021054603204FF480720E
:10527000CDE90221CDE900101301694628460493C7
:1052800000F094F903212246284600F027F905B0E2
:1052900030BD10B586B0044600210D204FF4807259
:1052A000CDE90221CDE9001013016946204604939F
:1052B00000F07CF90D2141F28832204600F02EF8F2
:1052C00006B010BD10B586B0044600210B204FF487
:1052D0008072CDE90221CDE9001013016946204614
:1052E000049300F063F90B2141F28832204600F06C
:1052F00015F806B010BD70B50A6842624A6882624D
:10530000C46AD1E90225D1E9043624F0FF012A4319
:1053100033431A431143C162002070BD30B5464D7E
:105320004FF4FA53434C2D68B5FBF3F353435B1E24
:1053300002D24FF0004030BD426B2242F7D09204BF
:10534000F5D4426B520703D504218163084630BD72
:10535000426BD20702D00121816306E0354A8032D8
:1053600082630269D2B28A4201D0012030BD00219D
:1053700000F0FEF83149084201D1002030BD00287C
:1053800002DA4FF0007030BD410001D5402030BD41
:10539000810001D5802030BDC10002D54FF480705E
:1053A00030BD010102D54FF4007030BD410102D57E
:1053B0004FF4806030BDC10102D54FF4006030BDB4
:1053C000010202D54FF4805030BD410202D54FF4A6
:1053D000005030BD810202D54FF4804030BDC10283
:1053E00002D54FF4004030BD410302D54FF40030E8
:1053F00030BD810302D54FF4802030BDC10302D5FA
:105400004FF4002030BD010402D54FF4801030BDB0
:10541000410402D54FF4001030BD810402D54FF491
:10542000800030BD000702D54FF4000030BD4FF4BE
:10543000803030BD450020000C00002008E0FFFD5A
:10544000124B4FF4FA5141F288321B68B3FBF1F171
:105450005143491E02D24FF000407047426B12F098
:10546000450FF6D09204F4D4416B490703D50421CB
:10547000816308467047416BC90703D001218163EE
:105480000846704702498163002070470C000020E5
:10549000C50020000F4B4FF4FA5141F288321B68CF
:1054A000B3FBF1F15143491E02D24FF00040704767
:1054B000426B12F0450FF6D09204F4D4416B4907C9
:1054C00003D50421816308467047034981630020A6
:1054D000704700000C000020C500200030B5204DB2
:1054E0004FF4FA5341F288342D68B5FBF3F363436C
:1054F0005B1E02D24FF0004030BD446B14F0450FEC
:10550000F6D0A404F4D4436B5B0703D50421816374
:10551000084630BD436BDB0702D00121816303E005
:105520000369DBB28B4201D0012030BD0D4981639C
:10553000002100F01DF810F4604F04D0410406D59E
:105540004FF4005030BD000C1080002030BD00042E
:1055500002D54FF4805030BD4FF4803030BD000094
:105560000C000020C5002000006800F00300704718
:10557000084440697047000030B511434268DDE9D6
:1055800003542B43034D194321432A400A434260ED
:10559000002030BD002CC0FF016841F00301016014
:1055A00000207047D0F880007047000070B5084DAB
:1055B0000A688260C368D1E90126D1E903412B4022
:1055C00032430C4322431343C360002070BD0000EC
:1055D000C0E0FEFF2DE9F04F87B00D460446FCF712
:1055E000BFF90026069020680821B3463746FFF72A
:1055F00025FD002833D1B4F8481020680904FFF7CE
:10560000ECFC00282BD1431E4FF008094FF0020A92
:105610004FF0300C4FF00108CDF80CA08DE80812C7
:10562000CDE9046820686946FFF765FE2068FFF74A
:10563000E4FD002813D140F22A582068416B11EA9A
:10564000080F06D1416B090315D4BBF1000F09D037
:1056500011E0416B090717D5C0F83890082007B052
:10566000BDE8F08FFFF79EFF06462068FFF79AFF20
:1056700007464FF0010BFCF773F90699401A401CDE
:10568000DBD14FF00040EAE7416B890703D5C0F852
:1056900038A00220E3E7416B890603D5202181630E
:1056A0000846DCE7034A39BA33BA82630020C5E909
:1056B0000013D4E73A0F001810B58CB0044601204F
:1056C000ADF82C002068FFF74FFF002853D0E06BA7
:1056D000032841D02068FFF762FD002849D12068E7
:1056E0000021FFF745FF206704212068FFF740FFF6
:1056F000606708212068FFF73BFFA0670C21206846
:10570000FFF736FFE16BE067032925D020680BA97E
:10571000FFF7A6FD00282CD1E06B03281CD0BDF8B4
:105720002C10A16420680904FFF74FFD002820D148
:1057300020680021FFF71CFF206604212068FFF786
:1057400017FF606608212068FFF712FFA0660C2192
:105750002068FFF70DFFE06604212068FFF708FFCF
:10576000000D694660642046FDF76CFF30B14FF0D4
:1057700080500CB010BD4FF08060FAE7B4F84800DC
:10578000002302042068FFF7F1FCF2E72DE9F84F4F
:1057900000260446354637460096FCF7E1F8804679
:1057A0002068FFF77FFC002867D12068FFF7A4FC82
:1057B0004FF001094FF6FF7A48B126642068FFF7E1
:1057C00071FC002859D1206C012802D01CE0C4F8DB
:1057D000409000212068FFF700FCE0BB14E0206847
:1057E0000021FFF7FAFB002847D120685946FFF750
:1057F0000EFC80BB20680021FFF7BAFEC70F0546EC
:105800000098401C009003E0DFF8C4B056460098B2
:10581000B04201D2002FE2D0B0424FF0807749D29F
:10582000680052D5A169C4F83C9002294DD1E80125
:105830004BD50D02E5652068016841F00801016063
:105840002068FFF73FFD002817D1AE052068406BA8
:10585000400108D400E00EE0FCF782F8A0EB08005D
:10586000401CF3D128E021684FF0806088632068F5
:10587000406BC00203D44FF08050BDE8F88F012088
:10588000FDF7DEFE2068016841F00401016005E0DB
:10589000FCF766F8A0EB0800401C0DD02068406BB8
:1058A0008001F5D521684FF0007088632068416B56
:1058B000C90203D53846E0E73046DEE713224FF051
:1058C000FF31026020688163E5650020D5E70000B4
:1058D000000010C12DE9F04186B00D460446FCF7EA
:1058E0003FF8002107462068FFF742FE800104D5FB
:1058F0004FF4006006B0BDE8F08120684021FFF75A
:105900009DFBC0B9B4F8481020680904FFF765FB97
:1059100088B940214FF0FF3060224FF0010C022384
:1059200000268DE84F1020686946FFF7E4FC2068E8
:10593000FFF7AFFC98B1A16BA163DBE7406B0004FC
:1059400007D500262068FFF72DFE761C082E01C51E
:10595000F8D3FCF705F8C01B401C02D127E04FF03C
:1059600000482068416B11F4957FE7D0416B09072F
:1059700001D50820BEE7416B890701D50220B9E7B0
:10598000406B80060AD52020B4E700BFFFF70AFE6F
:1059900001C5FBF7E5FFC01B401C08D02068416B28
:1059A000C904F3D40146034888630020A2E74046B7
:1059B000A0E700003A0F00187047FCF7FFB800009E
:1059C000F0B5CBB04C212FA8FAF7CCFC202142A88F
:1059D000FAF7C8FCBC216846FAF7C4FC0220FCF7C1
:1059E00081F9334800243349026842F4404202609E
:1059F00002680A6842F001020A60096801F00101C8
:105A00004A9101688904FCD5FCF794F9FBF7A2FFE1
:105A10002949294B483B0A6805200225C02608274A
:105A200022F018020A601968EA0321F0030C012130
:105A30000CF1020CC3F800C038953191CDE92F026A
:105A4000CDE93950CDE93B653D952FA83E95CDE98F
:105A50003F744194FDF7A6FA40203F224292020192
:105A6000CDE945700321CDE94702499042A8CDE92F
:105A700043140421FDF79EF80C21104A00922020C7
:105A8000CDE901510395C1050495C200CDE9070494
:105A9000139468461D941E942094179428942C9275
:105AA0001B91CDE90556FCF729FC4BB0F0BD000079
:105AB000184802582C040058704402580B904900B2
:105AC000214A30B5214914680020204B44F4700469
:105AD000146010330A681E4D42F001020A6018601B
